{
  "contractName": "MyNFT",
  "abi": [
    {
      "inputs": [],
      "stateMutability": "nonpayable",
      "type": "constructor"
    },
    {
      "anonymous": false,
      "inputs": [
        {
          "indexed": true,
          "internalType": "address",
          "name": "owner",
          "type": "address"
        },
        {
          "indexed": true,
          "internalType": "address",
          "name": "approved",
          "type": "address"
        },
        {
          "indexed": true,
          "internalType": "uint256",
          "name": "tokenId",
          "type": "uint256"
        }
      ],
      "name": "Approval",
      "type": "event"
    },
    {
      "anonymous": false,
      "inputs": [
        {
          "indexed": true,
          "internalType": "address",
          "name": "owner",
          "type": "address"
        },
        {
          "indexed": true,
          "internalType": "address",
          "name": "operator",
          "type": "address"
        },
        {
          "indexed": false,
          "internalType": "bool",
          "name": "approved",
          "type": "bool"
        }
      ],
      "name": "ApprovalForAll",
      "type": "event"
    },
    {
      "anonymous": false,
      "inputs": [
        {
          "indexed": true,
          "internalType": "address",
          "name": "from",
          "type": "address"
        },
        {
          "indexed": true,
          "internalType": "address",
          "name": "to",
          "type": "address"
        },
        {
          "indexed": true,
          "internalType": "uint256",
          "name": "tokenId",
          "type": "uint256"
        }
      ],
      "name": "Transfer",
      "type": "event"
    },
    {
      "inputs": [
        {
          "internalType": "address",
          "name": "to",
          "type": "address"
        },
        {
          "internalType": "uint256",
          "name": "tokenId",
          "type": "uint256"
        }
      ],
      "name": "approve",
      "outputs": [],
      "stateMutability": "nonpayable",
      "type": "function"
    },
    {
      "inputs": [
        {
          "internalType": "address",
          "name": "owner",
          "type": "address"
        }
      ],
      "name": "balanceOf",
      "outputs": [
        {
          "internalType": "uint256",
          "name": "",
          "type": "uint256"
        }
      ],
      "stateMutability": "view",
      "type": "function",
      "constant": true
    },
    {
      "inputs": [
        {
          "internalType": "uint256",
          "name": "tokenId",
          "type": "uint256"
        }
      ],
      "name": "getApproved",
      "outputs": [
        {
          "internalType": "address",
          "name": "",
          "type": "address"
        }
      ],
      "stateMutability": "view",
      "type": "function",
      "constant": true
    },
    {
      "inputs": [
        {
          "internalType": "address",
          "name": "owner",
          "type": "address"
        },
        {
          "internalType": "address",
          "name": "operator",
          "type": "address"
        }
      ],
      "name": "isApprovedForAll",
      "outputs": [
        {
          "internalType": "bool",
          "name": "",
          "type": "bool"
        }
      ],
      "stateMutability": "view",
      "type": "function",
      "constant": true
    },
    {
      "inputs": [],
      "name": "name",
      "outputs": [
        {
          "internalType": "string",
          "name": "",
          "type": "string"
        }
      ],
      "stateMutability": "view",
      "type": "function",
      "constant": true
    },
    {
      "inputs": [
        {
          "internalType": "uint256",
          "name": "tokenId",
          "type": "uint256"
        }
      ],
      "name": "ownerOf",
      "outputs": [
        {
          "internalType": "address",
          "name": "",
          "type": "address"
        }
      ],
      "stateMutability": "view",
      "type": "function",
      "constant": true
    },
    {
      "inputs": [
        {
          "internalType": "address",
          "name": "from",
          "type": "address"
        },
        {
          "internalType": "address",
          "name": "to",
          "type": "address"
        },
        {
          "internalType": "uint256",
          "name": "tokenId",
          "type": "uint256"
        }
      ],
      "name": "safeTransferFrom",
      "outputs": [],
      "stateMutability": "nonpayable",
      "type": "function"
    },
    {
      "inputs": [
        {
          "internalType": "address",
          "name": "from",
          "type": "address"
        },
        {
          "internalType": "address",
          "name": "to",
          "type": "address"
        },
        {
          "internalType": "uint256",
          "name": "tokenId",
          "type": "uint256"
        },
        {
          "internalType": "bytes",
          "name": "_data",
          "type": "bytes"
        }
      ],
      "name": "safeTransferFrom",
      "outputs": [],
      "stateMutability": "nonpayable",
      "type": "function"
    },
    {
      "inputs": [
        {
          "internalType": "address",
          "name": "operator",
          "type": "address"
        },
        {
          "internalType": "bool",
          "name": "approved",
          "type": "bool"
        }
      ],
      "name": "setApprovalForAll",
      "outputs": [],
      "stateMutability": "nonpayable",
      "type": "function"
    },
    {
      "inputs": [
        {
          "internalType": "bytes4",
          "name": "interfaceId",
          "type": "bytes4"
        }
      ],
      "name": "supportsInterface",
      "outputs": [
        {
          "internalType": "bool",
          "name": "",
          "type": "bool"
        }
      ],
      "stateMutability": "view",
      "type": "function",
      "constant": true
    },
    {
      "inputs": [],
      "name": "symbol",
      "outputs": [
        {
          "internalType": "string",
          "name": "",
          "type": "string"
        }
      ],
      "stateMutability": "view",
      "type": "function",
      "constant": true
    },
    {
      "inputs": [],
      "name": "token_count",
      "outputs": [
        {
          "internalType": "uint256",
          "name": "",
          "type": "uint256"
        }
      ],
      "stateMutability": "view",
      "type": "function",
      "constant": true
    },
    {
      "inputs": [
        {
          "internalType": "address",
          "name": "from",
          "type": "address"
        },
        {
          "internalType": "address",
          "name": "to",
          "type": "address"
        },
        {
          "internalType": "uint256",
          "name": "tokenId",
          "type": "uint256"
        }
      ],
      "name": "transferFrom",
      "outputs": [],
      "stateMutability": "nonpayable",
      "type": "function"
    },
    {
      "inputs": [
        {
          "internalType": "uint256",
          "name": "tokenId",
          "type": "uint256"
        }
      ],
      "name": "tokenURI",
      "outputs": [
        {
          "internalType": "string",
          "name": "",
          "type": "string"
        }
      ],
      "stateMutability": "view",
      "type": "function",
      "constant": true
    },
    {
      "inputs": [
        {
          "internalType": "address",
          "name": "to",
          "type": "address"
        }
      ],
      "name": "mintNFT",
      "outputs": [],
      "stateMutability": "nonpayable",
      "type": "function"
    }
  ],
  "bytecode": "0x60806040523480156200001157600080fd5b506040518060400160405280600681526020017f4d79204e465400000000000000000000000000000000000000000000000000008152506040518060400160405280600481526020017f4d4e465400000000000000000000000000000000000000000000000000000000815250816000908051906020019062000096929190620000b8565b508060019080519060200190620000af929190620000b8565b505050620001cd565b828054620000c69062000168565b90600052602060002090601f016020900481019282620000ea576000855562000136565b82601f106200010557805160ff191683800117855562000136565b8280016001018555821562000136579182015b828111156200013557825182559160200191906001019062000118565b5b50905062000145919062000149565b5090565b5b80821115620001645760008160009055506001016200014a565b5090565b600060028204905060018216806200018157607f821691505b602082108114156200019857620001976200019e565b5b50919050565b7f4e487b7100000000000000000000000000000000000000000000000000000000600052602260045260246000fd5b61240080620001dd6000396000f3fe608060405234801561001057600080fd5b50600436106100f55760003560e01c806354ba0f2711610097578063a22cb46511610066578063a22cb46514610284578063b88d4fde146102a0578063c87b56dd146102bc578063e985e9c5146102ec576100f5565b806354ba0f27146101ea5780636352211e1461020657806370a082311461023657806395d89b4114610266576100f5565b8063095ea7b3116100d3578063095ea7b31461017857806323b161ab1461019457806323b872dd146101b257806342842e0e146101ce576100f5565b806301ffc9a7146100fa57806306fdde031461012a578063081812fc14610148575b600080fd5b610114600480360381019061010f919061171c565b61031c565b6040516101219190611a93565b60405180910390f35b6101326103fe565b60405161013f9190611aae565b60405180910390f35b610162600480360381019061015d9190611776565b610490565b60405161016f9190611a2c565b60405180910390f35b610192600480360381019061018d91906116dc565b610515565b005b61019c61062d565b6040516101a99190611c90565b60405180910390f35b6101cc60048036038101906101c791906115c6565b610633565b005b6101e860048036038101906101e391906115c6565b610693565b005b61020460048036038101906101ff9190611559565b6106b3565b005b610220600480360381019061021b9190611776565b6106dc565b60405161022d9190611a2c565b60405180910390f35b610250600480360381019061024b9190611559565b61078e565b60405161025d9190611c90565b60405180910390f35b61026e610846565b60405161027b9190611aae565b60405180910390f35b61029e6004803603810190610299919061169c565b6108d8565b005b6102ba60048036038101906102b59190611619565b610a59565b005b6102d660048036038101906102d19190611776565b610abb565b6040516102e39190611aae565b60405180910390f35b61030660048036038101906103019190611586565b610b42565b6040516103139190611a93565b60405180910390f35b60007f80ac58cd000000000000000000000000000000000000000000000000000000007bffffffffffffffffffffffffffffffffffffffffffffffffffffffff1916827bffffffffffffffffffffffffffffffffffffffffffffffffffffffff191614806103e757507f5b5e139f000000000000000000000000000000000000000000000000000000007bffffffffffffffffffffffffffffffffffffffffffffffffffffffff1916827bffffffffffffffffffffffffffffffffffffffffffffffffffffffff1916145b806103f757506103f682610bd6565b5b9050919050565b60606000805461040d90611e79565b80601f016020809104026020016040519081016040528092919081815260200182805461043990611e79565b80156104865780601f1061045b57610100808354040283529160200191610486565b820191906000526020600020905b81548152906001019060200180831161046957829003601f168201915b5050505050905090565b600061049b82610c40565b6104da576040517f08c379a00000000000000000000000000000000000000000000000000000000081526004016104d190611bf0565b60405180910390fd5b6004600083815260200190815260200160002060009054906101000a900473ffffffffffffffffffffffffffffffffffffffff169050919050565b6000610520826106dc565b90508073ffffffffffffffffffffffffffffffffffffffff168373ffffffffffffffffffffffffffffffffffffffff161415610591576040517f08c379a000000000000000000000000000000000000000000000000000000000815260040161058890611c50565b60405180910390fd5b8073ffffffffffffffffffffffffffffffffffffffff166105b0610cac565b73ffffffffffffffffffffffffffffffffffffffff1614806105df57506105de816105d9610cac565b610b42565b5b61061e576040517f08c379a000000000000000000000000000000000000000000000000000000000815260040161061590611b70565b60405180910390fd5b6106288383610cb4565b505050565b60065481565b61064461063e610cac565b82610d6d565b610683576040517f08c379a000000000000000000000000000000000000000000000000000000000815260040161067a90611c70565b60405180910390fd5b61068e838383610e4b565b505050565b6106ae83838360405180602001604052806000815250610a59565b505050565b6001600660008282546106c69190611d39565b925050819055506106d9816006546110a7565b50565b6000806002600084815260200190815260200160002060009054906101000a900473ffffffffffffffffffffffffffffffffffffffff169050600073ffffffffffffffffffffffffffffffffffffffff168173ffffffffffffffffffffffffffffffffffffffff161415610785576040517f08c379a000000000000000000000000000000000000000000000000000000000815260040161077c90611bb0565b60405180910390fd5b80915050919050565b60008073ffffffffffffffffffffffffffffffffffffffff168273ffffffffffffffffffffffffffffffffffffffff1614156107ff576040517f08c379a00000000000000000000000000000000000000000000000000000000081526004016107f690611b90565b60405180910390fd5b600360008373ffffffffffffffffffffffffffffffffffffffff1673ffffffffffffffffffffffffffffffffffffffff168152602001908152602001600020549050919050565b60606001805461085590611e79565b80601f016020809104026020016040519081016040528092919081815260200182805461088190611e79565b80156108ce5780601f106108a3576101008083540402835291602001916108ce565b820191906000526020600020905b8154815290600101906020018083116108b157829003601f168201915b5050505050905090565b6108e0610cac565b73ffffffffffffffffffffffffffffffffffffffff168273ffffffffffffffffffffffffffffffffffffffff16141561094e576040517f08c379a000000000000000000000000000000000000000000000000000000000815260040161094590611b30565b60405180910390fd5b806005600061095b610cac565b73ffffffffffffffffffffffffffffffffffffffff1673ffffffffffffffffffffffffffffffffffffffff16815260200190815260200160002060008473ffffffffffffffffffffffffffffffffffffffff1673ffffffffffffffffffffffffffffffffffffffff16815260200190815260200160002060006101000a81548160ff0219169083151502179055508173ffffffffffffffffffffffffffffffffffffffff16610a08610cac565b73ffffffffffffffffffffffffffffffffffffffff167f17307eab39ab6107e8899845ad3d59bd9653f200f220920489ca2b5937696c3183604051610a4d9190611a93565b60405180910390a35050565b610a6a610a64610cac565b83610d6d565b610aa9576040517f08c379a0000000000000000000000000000000000000000000000000000000008152600401610aa090611c70565b60405180910390fd5b610ab584848484611275565b50505050565b6060610ac682610c40565b610b05576040517f08c379a0000000000000000000000000000000000000000000000000000000008152600401610afc90611c30565b60405180910390fd5b6040518060400160405280601f81526020017f68747470733a2f2f697066732e696f2f697066732f54554841534841515549008152509050919050565b6000600560008473ffffffffffffffffffffffffffffffffffffffff1673ffffffffffffffffffffffffffffffffffffffff16815260200190815260200160002060008373ffffffffffffffffffffffffffffffffffffffff1673ffffffffffffffffffffffffffffffffffffffff16815260200190815260200160002060009054906101000a900460ff16905092915050565b60007f01ffc9a7000000000000000000000000000000000000000000000000000000007bffffffffffffffffffffffffffffffffffffffffffffffffffffffff1916827bffffffffffffffffffffffffffffffffffffffffffffffffffffffff1916149050919050565b60008073ffffffffffffffffffffffffffffffffffffffff166002600084815260200190815260200160002060009054906101000a900473ffffffffffffffffffffffffffffffffffffffff1673ffffffffffffffffffffffffffffffffffffffff1614159050919050565b600033905090565b816004600083815260200190815260200160002060006101000a81548173ffffffffffffffffffffffffffffffffffffffff021916908373ffffffffffffffffffffffffffffffffffffffff160217905550808273ffffffffffffffffffffffffffffffffffffffff16610d27836106dc565b73ffffffffffffffffffffffffffffffffffffffff167f8c5be1e5ebec7d5bd14f71427d1e84f3dd0314c0f7b2291e5b200ac8c7c3b92560405160405180910390a45050565b6000610d7882610c40565b610db7576040517f08c379a0000000000000000000000000000000000000000000000000000000008152600401610dae90611b50565b60405180910390fd5b6000610dc2836106dc565b90508073ffffffffffffffffffffffffffffffffffffffff168473ffffffffffffffffffffffffffffffffffffffff161480610e3157508373ffffffffffffffffffffffffffffffffffffffff16610e1984610490565b73ffffffffffffffffffffffffffffffffffffffff16145b80610e425750610e418185610b42565b5b91505092915050565b8273ffffffffffffffffffffffffffffffffffffffff16610e6b826106dc565b73ffffffffffffffffffffffffffffffffffffffff1614610ec1576040517f08c379a0000000000000000000000000000000000000000000000000000000008152600401610eb890611c10565b60405180910390fd5b600073ffffffffffffffffffffffffffffffffffffffff168273ffffffffffffffffffffffffffffffffffffffff161415610f31576040517f08c379a0000000000000000000000000000000000000000000000000000000008152600401610f2890611b10565b60405180910390fd5b610f3c8383836112d1565b610f47600082610cb4565b6001600360008573ffffffffffffffffffffffffffffffffffffffff1673ffffffffffffffffffffffffffffffffffffffff1681526020019081526020016000206000828254610f979190611d8f565b925050819055506001600360008473ffffffffffffffffffffffffffffffffffffffff1673ffffffffffffffffffffffffffffffffffffffff1681526020019081526020016000206000828254610fee9190611d39565b92505081905550816002600083815260200190815260200160002060006101000a81548173ffffffffffffffffffffffffffffffffffffffff021916908373ffffffffffffffffffffffffffffffffffffffff160217905550808273ffffffffffffffffffffffffffffffffffffffff168473ffffffffffffffffffffffffffffffffffffffff167fddf252ad1be2c89b69c2b068fc378daa952ba7f163c4a11628f55a4df523b3ef60405160405180910390a4505050565b600073ffffffffffffffffffffffffffffffffffffffff168273ffffffffffffffffffffffffffffffffffffffff161415611117576040517f08c379a000000000000000000000000000000000000000000000000000000000815260040161110e90611bd0565b60405180910390fd5b61112081610c40565b15611160576040517f08c379a000000000000000000000000000000000000000000000000000000000815260040161115790611af0565b60405180910390fd5b61116c600083836112d1565b6001600360008473ffffffffffffffffffffffffffffffffffffffff1673ffffffffffffffffffffffffffffffffffffffff16815260200190815260200160002060008282546111bc9190611d39565b92505081905550816002600083815260200190815260200160002060006101000a81548173ffffffffffffffffffffffffffffffffffffffff021916908373ffffffffffffffffffffffffffffffffffffffff160217905550808273ffffffffffffffffffffffffffffffffffffffff16600073ffffffffffffffffffffffffffffffffffffffff167fddf252ad1be2c89b69c2b068fc378daa952ba7f163c4a11628f55a4df523b3ef60405160405180910390a45050565b611280848484610e4b565b61128c848484846112d6565b6112cb576040517f08c379a00000000000000000000000000000000000000000000000000000000081526004016112c290611ad0565b60405180910390fd5b50505050565b505050565b60006112f78473ffffffffffffffffffffffffffffffffffffffff1661146d565b15611460578373ffffffffffffffffffffffffffffffffffffffff1663150b7a02611320610cac565b8786866040518563ffffffff1660e01b81526004016113429493929190611a47565b602060405180830381600087803b15801561135c57600080fd5b505af192505050801561138d57506040513d601f19601f8201168201806040525081019061138a9190611749565b60015b611410573d80600081146113bd576040519150601f19603f3d011682016040523d82523d6000602084013e6113c2565b606091505b50600081511415611408576040517f08c379a00000000000000000000000000000000000000000000000000000000081526004016113ff90611ad0565b60405180910390fd5b805181602001fd5b63150b7a0260e01b7bffffffffffffffffffffffffffffffffffffffffffffffffffffffff1916817bffffffffffffffffffffffffffffffffffffffffffffffffffffffff191614915050611465565b600190505b949350505050565b600080823b905060008111915050919050565b600061149361148e84611cd0565b611cab565b9050828152602081018484840111156114af576114ae611f6e565b5b6114ba848285611e37565b509392505050565b6000813590506114d18161236e565b92915050565b6000813590506114e681612385565b92915050565b6000813590506114fb8161239c565b92915050565b6000815190506115108161239c565b92915050565b600082601f83011261152b5761152a611f69565b5b813561153b848260208601611480565b91505092915050565b600081359050611553816123b3565b92915050565b60006020828403121561156f5761156e611f78565b5b600061157d848285016114c2565b91505092915050565b6000806040838503121561159d5761159c611f78565b5b60006115ab858286016114c2565b92505060206115bc858286016114c2565b9150509250929050565b6000806000606084860312156115df576115de611f78565b5b60006115ed868287016114c2565b93505060206115fe868287016114c2565b925050604061160f86828701611544565b9150509250925092565b6000806000806080858703121561163357611632611f78565b5b6000611641878288016114c2565b9450506020611652878288016114c2565b935050604061166387828801611544565b925050606085013567ffffffffffffffff81111561168457611683611f73565b5b61169087828801611516565b91505092959194509250565b600080604083850312156116b3576116b2611f78565b5b60006116c1858286016114c2565b92505060206116d2858286016114d7565b9150509250929050565b600080604083850312156116f3576116f2611f78565b5b6000611701858286016114c2565b925050602061171285828601611544565b9150509250929050565b60006020828403121561173257611731611f78565b5b6000611740848285016114ec565b91505092915050565b60006020828403121561175f5761175e611f78565b5b600061176d84828501611501565b91505092915050565b60006020828403121561178c5761178b611f78565b5b600061179a84828501611544565b91505092915050565b6117ac81611dc3565b82525050565b6117bb81611dd5565b82525050565b60006117cc82611d01565b6117d68185611d17565b93506117e6818560208601611e46565b6117ef81611f7d565b840191505092915050565b600061180582611d0c565b61180f8185611d28565b935061181f818560208601611e46565b61182881611f7d565b840191505092915050565b6000611840603283611d28565b915061184b82611f8e565b604082019050919050565b6000611863601c83611d28565b915061186e82611fdd565b602082019050919050565b6000611886602483611d28565b915061189182612006565b604082019050919050565b60006118a9601983611d28565b91506118b482612055565b602082019050919050565b60006118cc602c83611d28565b91506118d78261207e565b604082019050919050565b60006118ef603883611d28565b91506118fa826120cd565b604082019050919050565b6000611912602a83611d28565b915061191d8261211c565b604082019050919050565b6000611935602983611d28565b91506119408261216b565b604082019050919050565b6000611958602083611d28565b9150611963826121ba565b602082019050919050565b600061197b602c83611d28565b9150611986826121e3565b604082019050919050565b600061199e602983611d28565b91506119a982612232565b604082019050919050565b60006119c1602f83611d28565b91506119cc82612281565b604082019050919050565b60006119e4602183611d28565b91506119ef826122d0565b604082019050919050565b6000611a07603183611d28565b9150611a128261231f565b604082019050919050565b611a2681611e2d565b82525050565b6000602082019050611a4160008301846117a3565b92915050565b6000608082019050611a5c60008301876117a3565b611a6960208301866117a3565b611a766040830185611a1d565b8181036060830152611a8881846117c1565b905095945050505050565b6000602082019050611aa860008301846117b2565b92915050565b60006020820190508181036000830152611ac881846117fa565b905092915050565b60006020820190508181036000830152611ae981611833565b9050919050565b60006020820190508181036000830152611b0981611856565b9050919050565b60006020820190508181036000830152611b2981611879565b9050919050565b60006020820190508181036000830152611b498161189c565b9050919050565b60006020820190508181036000830152611b69816118bf565b9050919050565b60006020820190508181036000830152611b89816118e2565b9050919050565b60006020820190508181036000830152611ba981611905565b9050919050565b60006020820190508181036000830152611bc981611928565b9050919050565b60006020820190508181036000830152611be98161194b565b9050919050565b60006020820190508181036000830152611c098161196e565b9050919050565b60006020820190508181036000830152611c2981611991565b9050919050565b60006020820190508181036000830152611c49816119b4565b9050919050565b60006020820190508181036000830152611c69816119d7565b9050919050565b60006020820190508181036000830152611c89816119fa565b9050919050565b6000602082019050611ca56000830184611a1d565b92915050565b6000611cb5611cc6565b9050611cc18282611eab565b919050565b6000604051905090565b600067ffffffffffffffff821115611ceb57611cea611f3a565b5b611cf482611f7d565b9050602081019050919050565b600081519050919050565b600081519050919050565b600082825260208201905092915050565b600082825260208201905092915050565b6000611d4482611e2d565b9150611d4f83611e2d565b9250827fffffffffffffffffffffffffffffffffffffffffffffffffffffffffffffffff03821115611d8457611d83611edc565b5b828201905092915050565b6000611d9a82611e2d565b9150611da583611e2d565b925082821015611db857611db7611edc565b5b828203905092915050565b6000611dce82611e0d565b9050919050565b60008115159050919050565b60007fffffffff0000000000000000000000000000000000000000000000000000000082169050919050565b600073ffffffffffffffffffffffffffffffffffffffff82169050919050565b6000819050919050565b82818337600083830152505050565b60005b83811015611e64578082015181840152602081019050611e49565b83811115611e73576000848401525b50505050565b60006002820490506001821680611e9157607f821691505b60208210811415611ea557611ea4611f0b565b5b50919050565b611eb482611f7d565b810181811067ffffffffffffffff82111715611ed357611ed2611f3a565b5b80604052505050565b7f4e487b7100000000000000000000000000000000000000000000000000000000600052601160045260246000fd5b7f4e487b7100000000000000000000000000000000000000000000000000000000600052602260045260246000fd5b7f4e487b7100000000000000000000000000000000000000000000000000000000600052604160045260246000fd5b600080fd5b600080fd5b600080fd5b600080fd5b6000601f19601f8301169050919050565b7f4552433732313a207472616e7366657220746f206e6f6e20455243373231526560008201527f63656976657220696d706c656d656e7465720000000000000000000000000000602082015250565b7f4552433732313a20746f6b656e20616c7265616479206d696e74656400000000600082015250565b7f4552433732313a207472616e7366657220746f20746865207a65726f2061646460008201527f7265737300000000000000000000000000000000000000000000000000000000602082015250565b7f4552433732313a20617070726f766520746f2063616c6c657200000000000000600082015250565b7f4552433732313a206f70657261746f7220717565727920666f72206e6f6e657860008201527f697374656e7420746f6b656e0000000000000000000000000000000000000000602082015250565b7f4552433732313a20617070726f76652063616c6c6572206973206e6f74206f7760008201527f6e6572206e6f7220617070726f76656420666f7220616c6c0000000000000000602082015250565b7f4552433732313a2062616c616e636520717565727920666f7220746865207a6560008201527f726f206164647265737300000000000000000000000000000000000000000000602082015250565b7f4552433732313a206f776e657220717565727920666f72206e6f6e657869737460008201527f656e7420746f6b656e0000000000000000000000000000000000000000000000602082015250565b7f4552433732313a206d696e7420746f20746865207a65726f2061646472657373600082015250565b7f4552433732313a20617070726f76656420717565727920666f72206e6f6e657860008201527f697374656e7420746f6b656e0000000000000000000000000000000000000000602082015250565b7f4552433732313a207472616e73666572206f6620746f6b656e2074686174206960008201527f73206e6f74206f776e0000000000000000000000000000000000000000000000602082015250565b7f4552433732314d657461646174613a2055524920717565727920666f72206e6f60008201527f6e6578697374656e7420746f6b656e0000000000000000000000000000000000602082015250565b7f4552433732313a20617070726f76616c20746f2063757272656e74206f776e6560008201527f7200000000000000000000000000000000000000000000000000000000000000602082015250565b7f4552433732313a207472616e736665722063616c6c6572206973206e6f74206f60008201527f776e6572206e6f7220617070726f766564000000000000000000000000000000602082015250565b61237781611dc3565b811461238257600080fd5b50565b61238e81611dd5565b811461239957600080fd5b50565b6123a581611de1565b81146123b057600080fd5b50565b6123bc81611e2d565b81146123c757600080fd5b5056fea2646970667358221220226b05c0e4cf27c8cb464e273d9146bb1c0cdadd32d63c2797d25f2983ffc1c464736f6c63430008060033",
  "immutableReferences": {},
  "source": "// contracts/GameItem.sol\n// SPDX-License-Identifier: MIT\npragma solidity 0.8.6;\n\nimport \"@openzeppelin/contracts/token/ERC721/ERC721.sol\";\n\ncontract MyNFT is ERC721 {\n    uint256 public token_count;\n\n    constructor() ERC721(\"My NFT\", \"MNFT\") {}\n\n    function tokenURI(uint256 tokenId) public view virtual override returns (string memory) {\n        require(_exists(tokenId), \"ERC721Metadata: URI query for nonexistent token\");\n        return \"https://ipfs.io/ipfs/TUHASHAQUI\";\n    }\n\n    function mintNFT(address to) public\n    {\n        token_count  += 1;\n        _mint(to, token_count);\n    }\n}",
  "sourcePath": "/home/turupawn/Projects/MyNFT/contracts/MyNFT.sol",
  "compiler": {
    "name": "solc",
    "version": "0.8.6+commit.11564f7e.Emscripten.clang"
  },
  "schemaVersion": "3.4.3",
  "updatedAt": "2021-09-02T05:06:23.116Z",
  "networkType": "ethereum",
  "devdoc": {
    "kind": "dev",
    "methods": {
      "approve(address,uint256)": {
        "details": "See {IERC721-approve}."
      },
      "balanceOf(address)": {
        "details": "See {IERC721-balanceOf}."
      },
      "getApproved(uint256)": {
        "details": "See {IERC721-getApproved}."
      },
      "isApprovedForAll(address,address)": {
        "details": "See {IERC721-isApprovedForAll}."
      },
      "name()": {
        "details": "See {IERC721Metadata-name}."
      },
      "ownerOf(uint256)": {
        "details": "See {IERC721-ownerOf}."
      },
      "safeTransferFrom(address,address,uint256)": {
        "details": "See {IERC721-safeTransferFrom}."
      },
      "safeTransferFrom(address,address,uint256,bytes)": {
        "details": "See {IERC721-safeTransferFrom}."
      },
      "setApprovalForAll(address,bool)": {
        "details": "See {IERC721-setApprovalForAll}."
      },
      "supportsInterface(bytes4)": {
        "details": "See {IERC165-supportsInterface}."
      },
      "symbol()": {
        "details": "See {IERC721Metadata-symbol}."
      },
      "tokenURI(uint256)": {
        "details": "See {IERC721Metadata-tokenURI}."
      },
      "transferFrom(address,address,uint256)": {
        "details": "See {IERC721-transferFrom}."
      }
    },
    "version": 1
  },
  "userdoc": {
    "kind": "user",
    "methods": {},
    "version": 1
  }
}