{
  "contractName": "MyNFT",
  "abi": [
    {
      "inputs": [
        {
          "internalType": "string",
          "name": "baseURI",
          "type": "string"
        }
      ],
      "stateMutability": "nonpayable",
      "type": "constructor"
    },
    {
      "anonymous": false,
      "inputs": [
        {
          "indexed": true,
          "internalType": "address",
          "name": "owner",
          "type": "address"
        },
        {
          "indexed": true,
          "internalType": "address",
          "name": "approved",
          "type": "address"
        },
        {
          "indexed": true,
          "internalType": "uint256",
          "name": "tokenId",
          "type": "uint256"
        }
      ],
      "name": "Approval",
      "type": "event"
    },
    {
      "anonymous": false,
      "inputs": [
        {
          "indexed": true,
          "internalType": "address",
          "name": "owner",
          "type": "address"
        },
        {
          "indexed": true,
          "internalType": "address",
          "name": "operator",
          "type": "address"
        },
        {
          "indexed": false,
          "internalType": "bool",
          "name": "approved",
          "type": "bool"
        }
      ],
      "name": "ApprovalForAll",
      "type": "event"
    },
    {
      "anonymous": false,
      "inputs": [
        {
          "indexed": true,
          "internalType": "uint256",
          "name": "id",
          "type": "uint256"
        }
      ],
      "name": "CreatePenguin",
      "type": "event"
    },
    {
      "anonymous": false,
      "inputs": [
        {
          "indexed": true,
          "internalType": "address",
          "name": "previousOwner",
          "type": "address"
        },
        {
          "indexed": true,
          "internalType": "address",
          "name": "newOwner",
          "type": "address"
        }
      ],
      "name": "OwnershipTransferred",
      "type": "event"
    },
    {
      "anonymous": false,
      "inputs": [
        {
          "indexed": false,
          "internalType": "address",
          "name": "account",
          "type": "address"
        }
      ],
      "name": "Paused",
      "type": "event"
    },
    {
      "anonymous": false,
      "inputs": [
        {
          "indexed": true,
          "internalType": "address",
          "name": "from",
          "type": "address"
        },
        {
          "indexed": true,
          "internalType": "address",
          "name": "to",
          "type": "address"
        },
        {
          "indexed": true,
          "internalType": "uint256",
          "name": "tokenId",
          "type": "uint256"
        }
      ],
      "name": "Transfer",
      "type": "event"
    },
    {
      "anonymous": false,
      "inputs": [
        {
          "indexed": false,
          "internalType": "address",
          "name": "account",
          "type": "address"
        }
      ],
      "name": "Unpaused",
      "type": "event"
    },
    {
      "inputs": [],
      "name": "MAX_BY_MINT",
      "outputs": [
        {
          "internalType": "uint256",
          "name": "",
          "type": "uint256"
        }
      ],
      "stateMutability": "view",
      "type": "function",
      "constant": true
    },
    {
      "inputs": [],
      "name": "MAX_ELEMENTS",
      "outputs": [
        {
          "internalType": "uint256",
          "name": "",
          "type": "uint256"
        }
      ],
      "stateMutability": "view",
      "type": "function",
      "constant": true
    },
    {
      "inputs": [],
      "name": "PRICE",
      "outputs": [
        {
          "internalType": "uint256",
          "name": "",
          "type": "uint256"
        }
      ],
      "stateMutability": "view",
      "type": "function",
      "constant": true
    },
    {
      "inputs": [
        {
          "internalType": "address",
          "name": "to",
          "type": "address"
        },
        {
          "internalType": "uint256",
          "name": "tokenId",
          "type": "uint256"
        }
      ],
      "name": "approve",
      "outputs": [],
      "stateMutability": "nonpayable",
      "type": "function"
    },
    {
      "inputs": [
        {
          "internalType": "address",
          "name": "owner",
          "type": "address"
        }
      ],
      "name": "balanceOf",
      "outputs": [
        {
          "internalType": "uint256",
          "name": "",
          "type": "uint256"
        }
      ],
      "stateMutability": "view",
      "type": "function",
      "constant": true
    },
    {
      "inputs": [],
      "name": "baseTokenURI",
      "outputs": [
        {
          "internalType": "string",
          "name": "",
          "type": "string"
        }
      ],
      "stateMutability": "view",
      "type": "function",
      "constant": true
    },
    {
      "inputs": [
        {
          "internalType": "uint256",
          "name": "tokenId",
          "type": "uint256"
        }
      ],
      "name": "burn",
      "outputs": [],
      "stateMutability": "nonpayable",
      "type": "function"
    },
    {
      "inputs": [],
      "name": "creatorAddress",
      "outputs": [
        {
          "internalType": "address",
          "name": "",
          "type": "address"
        }
      ],
      "stateMutability": "view",
      "type": "function",
      "constant": true
    },
    {
      "inputs": [],
      "name": "devAddress",
      "outputs": [
        {
          "internalType": "address",
          "name": "",
          "type": "address"
        }
      ],
      "stateMutability": "view",
      "type": "function",
      "constant": true
    },
    {
      "inputs": [
        {
          "internalType": "uint256",
          "name": "tokenId",
          "type": "uint256"
        }
      ],
      "name": "getApproved",
      "outputs": [
        {
          "internalType": "address",
          "name": "",
          "type": "address"
        }
      ],
      "stateMutability": "view",
      "type": "function",
      "constant": true
    },
    {
      "inputs": [
        {
          "internalType": "address",
          "name": "owner",
          "type": "address"
        },
        {
          "internalType": "address",
          "name": "operator",
          "type": "address"
        }
      ],
      "name": "isApprovedForAll",
      "outputs": [
        {
          "internalType": "bool",
          "name": "",
          "type": "bool"
        }
      ],
      "stateMutability": "view",
      "type": "function",
      "constant": true
    },
    {
      "inputs": [],
      "name": "name",
      "outputs": [
        {
          "internalType": "string",
          "name": "",
          "type": "string"
        }
      ],
      "stateMutability": "view",
      "type": "function",
      "constant": true
    },
    {
      "inputs": [],
      "name": "owner",
      "outputs": [
        {
          "internalType": "address",
          "name": "",
          "type": "address"
        }
      ],
      "stateMutability": "view",
      "type": "function",
      "constant": true
    },
    {
      "inputs": [
        {
          "internalType": "uint256",
          "name": "tokenId",
          "type": "uint256"
        }
      ],
      "name": "ownerOf",
      "outputs": [
        {
          "internalType": "address",
          "name": "",
          "type": "address"
        }
      ],
      "stateMutability": "view",
      "type": "function",
      "constant": true
    },
    {
      "inputs": [],
      "name": "paused",
      "outputs": [
        {
          "internalType": "bool",
          "name": "",
          "type": "bool"
        }
      ],
      "stateMutability": "view",
      "type": "function",
      "constant": true
    },
    {
      "inputs": [],
      "name": "renounceOwnership",
      "outputs": [],
      "stateMutability": "nonpayable",
      "type": "function"
    },
    {
      "inputs": [],
      "name": "reveal_timestamp",
      "outputs": [
        {
          "internalType": "uint256",
          "name": "",
          "type": "uint256"
        }
      ],
      "stateMutability": "view",
      "type": "function",
      "constant": true
    },
    {
      "inputs": [
        {
          "internalType": "address",
          "name": "from",
          "type": "address"
        },
        {
          "internalType": "address",
          "name": "to",
          "type": "address"
        },
        {
          "internalType": "uint256",
          "name": "tokenId",
          "type": "uint256"
        }
      ],
      "name": "safeTransferFrom",
      "outputs": [],
      "stateMutability": "nonpayable",
      "type": "function"
    },
    {
      "inputs": [
        {
          "internalType": "address",
          "name": "from",
          "type": "address"
        },
        {
          "internalType": "address",
          "name": "to",
          "type": "address"
        },
        {
          "internalType": "uint256",
          "name": "tokenId",
          "type": "uint256"
        },
        {
          "internalType": "bytes",
          "name": "_data",
          "type": "bytes"
        }
      ],
      "name": "safeTransferFrom",
      "outputs": [],
      "stateMutability": "nonpayable",
      "type": "function"
    },
    {
      "inputs": [
        {
          "internalType": "address",
          "name": "operator",
          "type": "address"
        },
        {
          "internalType": "bool",
          "name": "approved",
          "type": "bool"
        }
      ],
      "name": "setApprovalForAll",
      "outputs": [],
      "stateMutability": "nonpayable",
      "type": "function"
    },
    {
      "inputs": [],
      "name": "symbol",
      "outputs": [
        {
          "internalType": "string",
          "name": "",
          "type": "string"
        }
      ],
      "stateMutability": "view",
      "type": "function",
      "constant": true
    },
    {
      "inputs": [
        {
          "internalType": "uint256",
          "name": "index",
          "type": "uint256"
        }
      ],
      "name": "tokenByIndex",
      "outputs": [
        {
          "internalType": "uint256",
          "name": "",
          "type": "uint256"
        }
      ],
      "stateMutability": "view",
      "type": "function",
      "constant": true
    },
    {
      "inputs": [
        {
          "internalType": "address",
          "name": "owner",
          "type": "address"
        },
        {
          "internalType": "uint256",
          "name": "index",
          "type": "uint256"
        }
      ],
      "name": "tokenOfOwnerByIndex",
      "outputs": [
        {
          "internalType": "uint256",
          "name": "",
          "type": "uint256"
        }
      ],
      "stateMutability": "view",
      "type": "function",
      "constant": true
    },
    {
      "inputs": [
        {
          "internalType": "uint256",
          "name": "tokenId",
          "type": "uint256"
        }
      ],
      "name": "tokenURI",
      "outputs": [
        {
          "internalType": "string",
          "name": "",
          "type": "string"
        }
      ],
      "stateMutability": "view",
      "type": "function",
      "constant": true
    },
    {
      "inputs": [],
      "name": "totalSupply",
      "outputs": [
        {
          "internalType": "uint256",
          "name": "",
          "type": "uint256"
        }
      ],
      "stateMutability": "view",
      "type": "function",
      "constant": true
    },
    {
      "inputs": [
        {
          "internalType": "address",
          "name": "from",
          "type": "address"
        },
        {
          "internalType": "address",
          "name": "to",
          "type": "address"
        },
        {
          "internalType": "uint256",
          "name": "tokenId",
          "type": "uint256"
        }
      ],
      "name": "transferFrom",
      "outputs": [],
      "stateMutability": "nonpayable",
      "type": "function"
    },
    {
      "inputs": [
        {
          "internalType": "address",
          "name": "newOwner",
          "type": "address"
        }
      ],
      "name": "transferOwnership",
      "outputs": [],
      "stateMutability": "nonpayable",
      "type": "function"
    },
    {
      "inputs": [],
      "name": "totalMint",
      "outputs": [
        {
          "internalType": "uint256",
          "name": "",
          "type": "uint256"
        }
      ],
      "stateMutability": "view",
      "type": "function",
      "constant": true
    },
    {
      "inputs": [
        {
          "internalType": "address",
          "name": "_to",
          "type": "address"
        },
        {
          "internalType": "uint256",
          "name": "_count",
          "type": "uint256"
        }
      ],
      "name": "mint",
      "outputs": [],
      "stateMutability": "payable",
      "type": "function",
      "payable": true
    },
    {
      "inputs": [
        {
          "internalType": "uint256",
          "name": "_count",
          "type": "uint256"
        }
      ],
      "name": "price",
      "outputs": [
        {
          "internalType": "uint256",
          "name": "",
          "type": "uint256"
        }
      ],
      "stateMutability": "pure",
      "type": "function",
      "constant": true
    },
    {
      "inputs": [
        {
          "internalType": "string",
          "name": "baseURI",
          "type": "string"
        }
      ],
      "name": "setBaseURI",
      "outputs": [],
      "stateMutability": "nonpayable",
      "type": "function"
    },
    {
      "inputs": [
        {
          "internalType": "address",
          "name": "_owner",
          "type": "address"
        }
      ],
      "name": "walletOfOwner",
      "outputs": [
        {
          "internalType": "uint256[]",
          "name": "",
          "type": "uint256[]"
        }
      ],
      "stateMutability": "view",
      "type": "function",
      "constant": true
    },
    {
      "inputs": [
        {
          "internalType": "bool",
          "name": "val",
          "type": "bool"
        }
      ],
      "name": "pause",
      "outputs": [],
      "stateMutability": "nonpayable",
      "type": "function"
    },
    {
      "inputs": [],
      "name": "withdrawAll",
      "outputs": [],
      "stateMutability": "payable",
      "type": "function",
      "payable": true
    },
    {
      "inputs": [
        {
          "internalType": "bytes4",
          "name": "interfaceId",
          "type": "bytes4"
        }
      ],
      "name": "supportsInterface",
      "outputs": [
        {
          "internalType": "bool",
          "name": "",
          "type": "bool"
        }
      ],
      "stateMutability": "view",
      "type": "function",
      "constant": true
    }
  ],
  "bytecode": "0x60806040523480156200001157600080fd5b506040516200501d3803806200501d8339818101604052810190620000379190620003fb565b6040518060400160405280600581526020017f43726f63730000000000000000000000000000000000000000000000000000008152506040518060400160405280600281526020017f43430000000000000000000000000000000000000000000000000000000000008152508160009080519060200190620000bb929190620002cd565b508060019080519060200190620000d4929190620002cd565b505050620000f7620000eb6200012a60201b60201c565b6200013260201b60201c565b6000600a60146101000a81548160ff0219169083151502179055506200012381620001f860201b60201c565b5062000653565b600033905090565b6000600a60009054906101000a900473ffffffffffffffffffffffffffffffffffffffff16905081600a60006101000a81548173ffffffffffffffffffffffffffffffffffffffff021916908373ffffffffffffffffffffffffffffffffffffffff1602179055508173ffffffffffffffffffffffffffffffffffffffff168173ffffffffffffffffffffffffffffffffffffffff167f8be0079c531659141344cd1fd0a4f28419497f9722a3daafe3b4186f6b6457e060405160405180910390a35050565b620002086200012a60201b60201c565b73ffffffffffffffffffffffffffffffffffffffff166200022e620002a360201b60201c565b73ffffffffffffffffffffffffffffffffffffffff161462000287576040517f08c379a00000000000000000000000000000000000000000000000000000000081526004016200027e9062000473565b60405180910390fd5b80600c90805190602001906200029f929190620002cd565b5050565b6000600a60009054906101000a900473ffffffffffffffffffffffffffffffffffffffff16905090565b828054620002db906200053b565b90600052602060002090601f016020900481019282620002ff57600085556200034b565b82601f106200031a57805160ff19168380011785556200034b565b828001600101855582156200034b579182015b828111156200034a5782518255916020019190600101906200032d565b5b5090506200035a91906200035e565b5090565b5b80821115620003795760008160009055506001016200035f565b5090565b6000620003946200038e84620004be565b62000495565b905082815260208101848484011115620003b357620003b26200060a565b5b620003c084828562000505565b509392505050565b600082601f830112620003e057620003df62000605565b5b8151620003f28482602086016200037d565b91505092915050565b60006020828403121562000414576200041362000614565b5b600082015167ffffffffffffffff8111156200043557620004346200060f565b5b6200044384828501620003c8565b91505092915050565b60006200045b602083620004f4565b915062000468826200062a565b602082019050919050565b600060208201905081810360008301526200048e816200044c565b9050919050565b6000620004a1620004b4565b9050620004af828262000571565b919050565b6000604051905090565b600067ffffffffffffffff821115620004dc57620004db620005d6565b5b620004e78262000619565b9050602081019050919050565b600082825260208201905092915050565b60005b838110156200052557808201518184015260208101905062000508565b8381111562000535576000848401525b50505050565b600060028204905060018216806200055457607f821691505b602082108114156200056b576200056a620005a7565b5b50919050565b6200057c8262000619565b810181811067ffffffffffffffff821117156200059e576200059d620005d6565b5b80604052505050565b7f4e487b7100000000000000000000000000000000000000000000000000000000600052602260045260246000fd5b7f4e487b7100000000000000000000000000000000000000000000000000000000600052604160045260246000fd5b600080fd5b600080fd5b600080fd5b600080fd5b6000601f19601f8301169050919050565b7f4f776e61626c653a2063616c6c6572206973206e6f7420746865206f776e6572600082015250565b6149ba80620006636000396000f3fe6080604052600436106102045760003560e01c806359a7715a1161011857806395d89b41116100a0578063d547cfb71161006f578063d547cfb714610761578063e3e1047a1461078c578063e927fc5c146107b7578063e985e9c5146107e2578063f2fde38b1461081f57610204565b806395d89b41146106a7578063a22cb465146106d2578063b88d4fde146106fb578063c87b56dd1461072457610204565b8063715018a6116100e7578063715018a614610605578063853828b61461061c5780638ad5de28146106265780638d859f3e146106515780638da5cb5b1461067c57610204565b806359a7715a146105355780635c975abb146105605780636352211e1461058b57806370a08231146105c857610204565b80632f745c591161019b57806342842e0e1161016a57806342842e0e1461044057806342966c6814610469578063438b6300146104925780634f6ccce7146104cf57806355f804b31461050c57610204565b80632f745c59146103915780633502a716146103ce5780633ad10ef6146103f957806340c10f191461042457610204565b8063095ea7b3116101d7578063095ea7b3146102d757806318160ddd1461030057806323b872dd1461032b57806326a49e371461035457610204565b806301ffc9a71461020957806302329a291461024657806306fdde031461026f578063081812fc1461029a575b600080fd5b34801561021557600080fd5b50610230600480360381019061022b919061330a565b610848565b60405161023d91906139c5565b60405180910390f35b34801561025257600080fd5b5061026d600480360381019061026891906132dd565b61085a565b005b34801561027b57600080fd5b506102846108fc565b60405161029191906139e0565b60405180910390f35b3480156102a657600080fd5b506102c160048036038101906102bc91906133ad565b61098e565b6040516102ce919061393c565b60405180910390f35b3480156102e357600080fd5b506102fe60048036038101906102f9919061329d565b610a13565b005b34801561030c57600080fd5b50610315610b2b565b6040516103229190613d62565b60405180910390f35b34801561033757600080fd5b50610352600480360381019061034d9190613187565b610b38565b005b34801561036057600080fd5b5061037b600480360381019061037691906133ad565b610b98565b6040516103889190613d62565b60405180910390f35b34801561039d57600080fd5b506103b860048036038101906103b3919061329d565b610bbb565b6040516103c59190613d62565b60405180910390f35b3480156103da57600080fd5b506103e3610c60565b6040516103f09190613d62565b60405180910390f35b34801561040557600080fd5b5061040e610c65565b60405161041b919061393c565b60405180910390f35b61043e6004803603810190610439919061329d565b610c7d565b005b34801561044c57600080fd5b5061046760048036038101906104629190613187565b610ead565b005b34801561047557600080fd5b50610490600480360381019061048b91906133ad565b610ecd565b005b34801561049e57600080fd5b506104b960048036038101906104b4919061311a565b610f29565b6040516104c691906139a3565b60405180910390f35b3480156104db57600080fd5b506104f660048036038101906104f191906133ad565b610fd7565b6040516105039190613d62565b60405180910390f35b34801561051857600080fd5b50610533600480360381019061052e9190613364565b611048565b005b34801561054157600080fd5b5061054a6110de565b6040516105579190613d62565b60405180910390f35b34801561056c57600080fd5b506105756110ed565b60405161058291906139c5565b60405180910390f35b34801561059757600080fd5b506105b260048036038101906105ad91906133ad565b611104565b6040516105bf919061393c565b60405180910390f35b3480156105d457600080fd5b506105ef60048036038101906105ea919061311a565b6111b6565b6040516105fc9190613d62565b60405180910390f35b34801561061157600080fd5b5061061a61126e565b005b6106246112f6565b005b34801561063257600080fd5b5061063b6113e9565b6040516106489190613d62565b60405180910390f35b34801561065d57600080fd5b506106666113ee565b6040516106739190613d62565b60405180910390f35b34801561068857600080fd5b506106916113f9565b60405161069e919061393c565b60405180910390f35b3480156106b357600080fd5b506106bc611423565b6040516106c991906139e0565b60405180910390f35b3480156106de57600080fd5b506106f960048036038101906106f4919061325d565b6114b5565b005b34801561070757600080fd5b50610722600480360381019061071d91906131da565b611636565b005b34801561073057600080fd5b5061074b600480360381019061074691906133ad565b611698565b60405161075891906139e0565b60405180910390f35b34801561076d57600080fd5b5061077661173f565b60405161078391906139e0565b60405180910390f35b34801561079857600080fd5b506107a16117cd565b6040516107ae9190613d62565b60405180910390f35b3480156107c357600080fd5b506107cc6117d5565b6040516107d9919061393c565b60405180910390f35b3480156107ee57600080fd5b5061080960048036038101906108049190613147565b6117ed565b60405161081691906139c5565b60405180910390f35b34801561082b57600080fd5b506108466004803603810190610841919061311a565b611881565b005b600061085382611979565b9050919050565b6108626119f3565b73ffffffffffffffffffffffffffffffffffffffff166108806113f9565b73ffffffffffffffffffffffffffffffffffffffff16146108d6576040517f08c379a00000000000000000000000000000000000000000000000000000000081526004016108cd90613c42565b60405180910390fd5b6001151581151514156108f0576108eb6119fb565b6108f9565b6108f8611a9e565b5b50565b60606000805461090b90614056565b80601f016020809104026020016040519081016040528092919081815260200182805461093790614056565b80156109845780601f1061095957610100808354040283529160200191610984565b820191906000526020600020905b81548152906001019060200180831161096757829003601f168201915b5050505050905090565b600061099982611b40565b6109d8576040517f08c379a00000000000000000000000000000000000000000000000000000000081526004016109cf90613c22565b60405180910390fd5b6004600083815260200190815260200160002060009054906101000a900473ffffffffffffffffffffffffffffffffffffffff169050919050565b6000610a1e82611104565b90508073ffffffffffffffffffffffffffffffffffffffff168373ffffffffffffffffffffffffffffffffffffffff161415610a8f576040517f08c379a0000000000000000000000000000000000000000000000000000000008152600401610a8690613cc2565b60405180910390fd5b8073ffffffffffffffffffffffffffffffffffffffff16610aae6119f3565b73ffffffffffffffffffffffffffffffffffffffff161480610add5750610adc81610ad76119f3565b6117ed565b5b610b1c576040517f08c379a0000000000000000000000000000000000000000000000000000000008152600401610b1390613b82565b60405180910390fd5b610b268383611bac565b505050565b6000600880549050905090565b610b49610b436119f3565b82611c65565b610b88576040517f08c379a0000000000000000000000000000000000000000000000000000000008152600401610b7f90613d02565b60405180910390fd5b610b93838383611d43565b505050565b6000610bb482662386f26fc10000611f9f90919063ffffffff16565b9050919050565b6000610bc6836111b6565b8210610c07576040517f08c379a0000000000000000000000000000000000000000000000000000000008152600401610bfe90613a62565b60405180910390fd5b600660008473ffffffffffffffffffffffffffffffffffffffff1673ffffffffffffffffffffffffffffffffffffffff168152602001908152602001600020600083815260200190815260200160002054905092915050565b601481565b73730bf3b67090511a64aba060fbd2f7903536321e81565b6014610c87611fb5565b1115610cc8576040517f08c379a0000000000000000000000000000000000000000000000000000000008152600401610cbf90613c02565b60405180910390fd5b610cd06113f9565b73ffffffffffffffffffffffffffffffffffffffff16610cee6119f3565b73ffffffffffffffffffffffffffffffffffffffff1614610d5257610d116110ed565b15610d51576040517f08c379a0000000000000000000000000000000000000000000000000000000008152600401610d4890613b62565b60405180910390fd5b5b6000610d5c611fb5565b905060148282610d6c9190613e8b565b1115610dad576040517f08c379a0000000000000000000000000000000000000000000000000000000008152600401610da490613b22565b60405180910390fd5b6014811115610df1576040517f08c379a0000000000000000000000000000000000000000000000000000000008152600401610de890613c02565b60405180910390fd5b6014821115610e35576040517f08c379a0000000000000000000000000000000000000000000000000000000008152600401610e2c90613a42565b60405180910390fd5b610e3e82610b98565b341015610e80576040517f08c379a0000000000000000000000000000000000000000000000000000000008152600401610e7790613ca2565b60405180910390fd5b60005b82811015610ea757610e9484611fc6565b8080610e9f906140b9565b915050610e83565b50505050565b610ec883838360405180602001604052806000815250611636565b505050565b610ede610ed86119f3565b82611c65565b610f1d576040517f08c379a0000000000000000000000000000000000000000000000000000000008152600401610f1490613d42565b60405180910390fd5b610f2681612017565b50565b60606000610f36836111b6565b905060008167ffffffffffffffff811115610f5457610f5361421e565b5b604051908082528060200260200182016040528015610f825781602001602082028036833780820191505090505b50905060005b82811015610fcc57610f9a8582610bbb565b828281518110610fad57610fac6141ef565b5b6020026020010181815250508080610fc4906140b9565b915050610f88565b508092505050919050565b6000610fe1610b2b565b8210611022576040517f08c379a000000000000000000000000000000000000000000000000000000000815260040161101990613d22565b60405180910390fd5b60088281548110611036576110356141ef565b5b90600052602060002001549050919050565b6110506119f3565b73ffffffffffffffffffffffffffffffffffffffff1661106e6113f9565b73ffffffffffffffffffffffffffffffffffffffff16146110c4576040517f08c379a00000000000000000000000000000000000000000000000000000000081526004016110bb90613c42565b60405180910390fd5b80600c90805190602001906110da929190612f2e565b5050565b60006110e8611fb5565b905090565b6000600a60149054906101000a900460ff16905090565b6000806002600084815260200190815260200160002060009054906101000a900473ffffffffffffffffffffffffffffffffffffffff169050600073ffffffffffffffffffffffffffffffffffffffff168173ffffffffffffffffffffffffffffffffffffffff1614156111ad576040517f08c379a00000000000000000000000000000000000000000000000000000000081526004016111a490613bc2565b60405180910390fd5b80915050919050565b60008073ffffffffffffffffffffffffffffffffffffffff168273ffffffffffffffffffffffffffffffffffffffff161415611227576040517f08c379a000000000000000000000000000000000000000000000000000000000815260040161121e90613ba2565b60405180910390fd5b600360008373ffffffffffffffffffffffffffffffffffffffff1673ffffffffffffffffffffffffffffffffffffffff168152602001908152602001600020549050919050565b6112766119f3565b73ffffffffffffffffffffffffffffffffffffffff166112946113f9565b73ffffffffffffffffffffffffffffffffffffffff16146112ea576040517f08c379a00000000000000000000000000000000000000000000000000000000081526004016112e190613c42565b60405180910390fd5b6112f46000612128565b565b6112fe6119f3565b73ffffffffffffffffffffffffffffffffffffffff1661131c6113f9565b73ffffffffffffffffffffffffffffffffffffffff1614611372576040517f08c379a000000000000000000000000000000000000000000000000000000000815260040161136990613c42565b60405180910390fd5b60004790506000811161138457600080fd5b6113c873730bf3b67090511a64aba060fbd2f7903536321e6113c360646113b5602386611f9f90919063ffffffff16565b6121ee90919063ffffffff16565b612204565b6113e673730bf3b67090511a64aba060fbd2f7903536321e47612204565b50565b601481565b662386f26fc1000081565b6000600a60009054906101000a900473ffffffffffffffffffffffffffffffffffffffff16905090565b60606001805461143290614056565b80601f016020809104026020016040519081016040528092919081815260200182805461145e90614056565b80156114ab5780601f10611480576101008083540402835291602001916114ab565b820191906000526020600020905b81548152906001019060200180831161148e57829003601f168201915b5050505050905090565b6114bd6119f3565b73ffffffffffffffffffffffffffffffffffffffff168273ffffffffffffffffffffffffffffffffffffffff16141561152b576040517f08c379a000000000000000000000000000000000000000000000000000000000815260040161152290613b02565b60405180910390fd5b80600560006115386119f3565b73ffffffffffffffffffffffffffffffffffffffff1673ffffffffffffffffffffffffffffffffffffffff16815260200190815260200160002060008473ffffffffffffffffffffffffffffffffffffffff1673ffffffffffffffffffffffffffffffffffffffff16815260200190815260200160002060006101000a81548160ff0219169083151502179055508173ffffffffffffffffffffffffffffffffffffffff166115e56119f3565b73ffffffffffffffffffffffffffffffffffffffff167f17307eab39ab6107e8899845ad3d59bd9653f200f220920489ca2b5937696c318360405161162a91906139c5565b60405180910390a35050565b6116476116416119f3565b83611c65565b611686576040517f08c379a000000000000000000000000000000000000000000000000000000000815260040161167d90613d02565b60405180910390fd5b611692848484846122b5565b50505050565b60606116a382611b40565b6116e2576040517f08c379a00000000000000000000000000000000000000000000000000000000081526004016116d990613c82565b60405180910390fd5b60006116ec612311565b9050600081511161170c5760405180602001604052806000815250611737565b80611716846123a3565b604051602001611727929190613903565b6040516020818303038152906040525b915050919050565b600c805461174c90614056565b80601f016020809104026020016040519081016040528092919081815260200182805461177890614056565b80156117c55780601f1061179a576101008083540402835291602001916117c5565b820191906000526020600020905b8154815290600101906020018083116117a857829003601f168201915b505050505081565b63610308c081565b73730bf3b67090511a64aba060fbd2f7903536321e81565b6000600560008473ffffffffffffffffffffffffffffffffffffffff1673ffffffffffffffffffffffffffffffffffffffff16815260200190815260200160002060008373ffffffffffffffffffffffffffffffffffffffff1673ffffffffffffffffffffffffffffffffffffffff16815260200190815260200160002060009054906101000a900460ff16905092915050565b6118896119f3565b73ffffffffffffffffffffffffffffffffffffffff166118a76113f9565b73ffffffffffffffffffffffffffffffffffffffff16146118fd576040517f08c379a00000000000000000000000000000000000000000000000000000000081526004016118f490613c42565b60405180910390fd5b600073ffffffffffffffffffffffffffffffffffffffff168173ffffffffffffffffffffffffffffffffffffffff16141561196d576040517f08c379a000000000000000000000000000000000000000000000000000000000815260040161196490613aa2565b60405180910390fd5b61197681612128565b50565b60007f780e9d63000000000000000000000000000000000000000000000000000000007bffffffffffffffffffffffffffffffffffffffffffffffffffffffff1916827bffffffffffffffffffffffffffffffffffffffffffffffffffffffff191614806119ec57506119eb82612504565b5b9050919050565b600033905090565b611a036110ed565b15611a43576040517f08c379a0000000000000000000000000000000000000000000000000000000008152600401611a3a90613b62565b60405180910390fd5b6001600a60146101000a81548160ff0219169083151502179055507f62e78cea01bee320cd4e420270b5ea74000d11b0c9f74754ebdbfc544b05a258611a876119f3565b604051611a94919061393c565b60405180910390a1565b611aa66110ed565b611ae5576040517f08c379a0000000000000000000000000000000000000000000000000000000008152600401611adc90613a22565b60405180910390fd5b6000600a60146101000a81548160ff0219169083151502179055507f5db9ee0a495bf2e6ff9c91a7834c1ba4fdd244a5e8aa4e537bd38aeae4b073aa611b296119f3565b604051611b36919061393c565b60405180910390a1565b60008073ffffffffffffffffffffffffffffffffffffffff166002600084815260200190815260200160002060009054906101000a900473ffffffffffffffffffffffffffffffffffffffff1673ffffffffffffffffffffffffffffffffffffffff1614159050919050565b816004600083815260200190815260200160002060006101000a81548173ffffffffffffffffffffffffffffffffffffffff021916908373ffffffffffffffffffffffffffffffffffffffff160217905550808273ffffffffffffffffffffffffffffffffffffffff16611c1f83611104565b73ffffffffffffffffffffffffffffffffffffffff167f8c5be1e5ebec7d5bd14f71427d1e84f3dd0314c0f7b2291e5b200ac8c7c3b92560405160405180910390a45050565b6000611c7082611b40565b611caf576040517f08c379a0000000000000000000000000000000000000000000000000000000008152600401611ca690613b42565b60405180910390fd5b6000611cba83611104565b90508073ffffffffffffffffffffffffffffffffffffffff168473ffffffffffffffffffffffffffffffffffffffff161480611d2957508373ffffffffffffffffffffffffffffffffffffffff16611d118461098e565b73ffffffffffffffffffffffffffffffffffffffff16145b80611d3a5750611d3981856117ed565b5b91505092915050565b8273ffffffffffffffffffffffffffffffffffffffff16611d6382611104565b73ffffffffffffffffffffffffffffffffffffffff1614611db9576040517f08c379a0000000000000000000000000000000000000000000000000000000008152600401611db090613c62565b60405180910390fd5b600073ffffffffffffffffffffffffffffffffffffffff168273ffffffffffffffffffffffffffffffffffffffff161415611e29576040517f08c379a0000000000000000000000000000000000000000000000000000000008152600401611e2090613ae2565b60405180910390fd5b611e348383836125e6565b611e3f600082611bac565b6001600360008573ffffffffffffffffffffffffffffffffffffffff1673ffffffffffffffffffffffffffffffffffffffff1681526020019081526020016000206000828254611e8f9190613f6c565b925050819055506001600360008473ffffffffffffffffffffffffffffffffffffffff1673ffffffffffffffffffffffffffffffffffffffff1681526020019081526020016000206000828254611ee69190613e8b565b92505081905550816002600083815260200190815260200160002060006101000a81548173ffffffffffffffffffffffffffffffffffffffff021916908373ffffffffffffffffffffffffffffffffffffffff160217905550808273ffffffffffffffffffffffffffffffffffffffff168473ffffffffffffffffffffffffffffffffffffffff167fddf252ad1be2c89b69c2b068fc378daa952ba7f163c4a11628f55a4df523b3ef60405160405180910390a4505050565b60008183611fad9190613f12565b905092915050565b6000611fc1600b6125f6565b905090565b6000611fd0611fb5565b9050611fdc600b612604565b611fe6828261261a565b807f645f26e653c951cec836533f8fe0616d301c20a17153debc17d7c3dbe4f32b2860405160405180910390a25050565b600061202282611104565b9050612030816000846125e6565b61203b600083611bac565b6001600360008373ffffffffffffffffffffffffffffffffffffffff1673ffffffffffffffffffffffffffffffffffffffff168152602001908152602001600020600082825461208b9190613f6c565b925050819055506002600083815260200190815260200160002060006101000a81549073ffffffffffffffffffffffffffffffffffffffff021916905581600073ffffffffffffffffffffffffffffffffffffffff168273ffffffffffffffffffffffffffffffffffffffff167fddf252ad1be2c89b69c2b068fc378daa952ba7f163c4a11628f55a4df523b3ef60405160405180910390a45050565b6000600a60009054906101000a900473ffffffffffffffffffffffffffffffffffffffff16905081600a60006101000a81548173ffffffffffffffffffffffffffffffffffffffff021916908373ffffffffffffffffffffffffffffffffffffffff1602179055508173ffffffffffffffffffffffffffffffffffffffff168173ffffffffffffffffffffffffffffffffffffffff167f8be0079c531659141344cd1fd0a4f28419497f9722a3daafe3b4186f6b6457e060405160405180910390a35050565b600081836121fc9190613ee1565b905092915050565b60008273ffffffffffffffffffffffffffffffffffffffff168260405161222a90613927565b60006040518083038185875af1925050503d8060008114612267576040519150601f19603f3d011682016040523d82523d6000602084013e61226c565b606091505b50509050806122b0576040517f08c379a00000000000000000000000000000000000000000000000000000000081526004016122a790613ce2565b60405180910390fd5b505050565b6122c0848484611d43565b6122cc84848484612638565b61230b576040517f08c379a000000000000000000000000000000000000000000000000000000000815260040161230290613a82565b60405180910390fd5b50505050565b6060600c805461232090614056565b80601f016020809104026020016040519081016040528092919081815260200182805461234c90614056565b80156123995780601f1061236e57610100808354040283529160200191612399565b820191906000526020600020905b81548152906001019060200180831161237c57829003601f168201915b5050505050905090565b606060008214156123eb576040518060400160405280600181526020017f300000000000000000000000000000000000000000000000000000000000000081525090506124ff565b600082905060005b6000821461241d578080612406906140b9565b915050600a826124169190613ee1565b91506123f3565b60008167ffffffffffffffff8111156124395761243861421e565b5b6040519080825280601f01601f19166020018201604052801561246b5781602001600182028036833780820191505090505b5090505b600085146124f8576001826124849190613f6c565b9150600a856124939190614102565b603061249f9190613e8b565b60f81b8183815181106124b5576124b46141ef565b5b60200101907effffffffffffffffffffffffffffffffffffffffffffffffffffffffffffff1916908160001a905350600a856124f19190613ee1565b945061246f565b8093505050505b919050565b60007f80ac58cd000000000000000000000000000000000000000000000000000000007bffffffffffffffffffffffffffffffffffffffffffffffffffffffff1916827bffffffffffffffffffffffffffffffffffffffffffffffffffffffff191614806125cf57507f5b5e139f000000000000000000000000000000000000000000000000000000007bffffffffffffffffffffffffffffffffffffffffffffffffffffffff1916827bffffffffffffffffffffffffffffffffffffffffffffffffffffffff1916145b806125df57506125de826127cf565b5b9050919050565b6125f1838383612839565b505050565b600081600001549050919050565b6001816000016000828254019250508190555050565b6126348282604051806020016040528060008152506128d3565b5050565b60006126598473ffffffffffffffffffffffffffffffffffffffff1661292e565b156127c2578373ffffffffffffffffffffffffffffffffffffffff1663150b7a026126826119f3565b8786866040518563ffffffff1660e01b81526004016126a49493929190613957565b602060405180830381600087803b1580156126be57600080fd5b505af19250505080156126ef57506040513d601f19601f820116820180604052508101906126ec9190613337565b60015b612772573d806000811461271f576040519150601f19603f3d011682016040523d82523d6000602084013e612724565b606091505b5060008151141561276a576040517f08c379a000000000000000000000000000000000000000000000000000000000815260040161276190613a82565b60405180910390fd5b805181602001fd5b63150b7a0260e01b7bffffffffffffffffffffffffffffffffffffffffffffffffffffffff1916817bffffffffffffffffffffffffffffffffffffffffffffffffffffffff1916149150506127c7565b600190505b949350505050565b60007f01ffc9a7000000000000000000000000000000000000000000000000000000007bffffffffffffffffffffffffffffffffffffffffffffffffffffffff1916827bffffffffffffffffffffffffffffffffffffffffffffffffffffffff1916149050919050565b612844838383612941565b61284c6113f9565b73ffffffffffffffffffffffffffffffffffffffff1661286a6119f3565b73ffffffffffffffffffffffffffffffffffffffff16146128ce5761288d6110ed565b156128cd576040517f08c379a00000000000000000000000000000000000000000000000000000000081526004016128c490613a02565b60405180910390fd5b5b505050565b6128dd8383612a55565b6128ea6000848484612638565b612929576040517f08c379a000000000000000000000000000000000000000000000000000000000815260040161292090613a82565b60405180910390fd5b505050565b600080823b905060008111915050919050565b61294c838383612c23565b600073ffffffffffffffffffffffffffffffffffffffff168373ffffffffffffffffffffffffffffffffffffffff16141561298f5761298a81612c28565b6129ce565b8173ffffffffffffffffffffffffffffffffffffffff168373ffffffffffffffffffffffffffffffffffffffff16146129cd576129cc8382612c71565b5b5b600073ffffffffffffffffffffffffffffffffffffffff168273ffffffffffffffffffffffffffffffffffffffff161415612a1157612a0c81612dde565b612a50565b8273ffffffffffffffffffffffffffffffffffffffff168273ffffffffffffffffffffffffffffffffffffffff1614612a4f57612a4e8282612eaf565b5b5b505050565b600073ffffffffffffffffffffffffffffffffffffffff168273ffffffffffffffffffffffffffffffffffffffff161415612ac5576040517f08c379a0000000000000000000000000000000000000000000000000000000008152600401612abc90613be2565b60405180910390fd5b612ace81611b40565b15612b0e576040517f08c379a0000000000000000000000000000000000000000000000000000000008152600401612b0590613ac2565b60405180910390fd5b612b1a600083836125e6565b6001600360008473ffffffffffffffffffffffffffffffffffffffff1673ffffffffffffffffffffffffffffffffffffffff1681526020019081526020016000206000828254612b6a9190613e8b565b92505081905550816002600083815260200190815260200160002060006101000a81548173ffffffffffffffffffffffffffffffffffffffff021916908373ffffffffffffffffffffffffffffffffffffffff160217905550808273ffffffffffffffffffffffffffffffffffffffff16600073ffffffffffffffffffffffffffffffffffffffff167fddf252ad1be2c89b69c2b068fc378daa952ba7f163c4a11628f55a4df523b3ef60405160405180910390a45050565b505050565b6008805490506009600083815260200190815260200160002081905550600881908060018154018082558091505060019003906000526020600020016000909190919091505550565b60006001612c7e846111b6565b612c889190613f6c565b9050600060076000848152602001908152602001600020549050818114612d6d576000600660008673ffffffffffffffffffffffffffffffffffffffff1673ffffffffffffffffffffffffffffffffffffffff168152602001908152602001600020600084815260200190815260200160002054905080600660008773ffffffffffffffffffffffffffffffffffffffff1673ffffffffffffffffffffffffffffffffffffffff168152602001908152602001600020600084815260200190815260200160002081905550816007600083815260200190815260200160002081905550505b6007600084815260200190815260200160002060009055600660008573ffffffffffffffffffffffffffffffffffffffff1673ffffffffffffffffffffffffffffffffffffffff16815260200190815260200160002060008381526020019081526020016000206000905550505050565b60006001600880549050612df29190613f6c565b9050600060096000848152602001908152602001600020549050600060088381548110612e2257612e216141ef565b5b906000526020600020015490508060088381548110612e4457612e436141ef565b5b906000526020600020018190555081600960008381526020019081526020016000208190555060096000858152602001908152602001600020600090556008805480612e9357612e926141c0565b5b6001900381819060005260206000200160009055905550505050565b6000612eba836111b6565b905081600660008573ffffffffffffffffffffffffffffffffffffffff1673ffffffffffffffffffffffffffffffffffffffff168152602001908152602001600020600083815260200190815260200160002081905550806007600084815260200190815260200160002081905550505050565b828054612f3a90614056565b90600052602060002090601f016020900481019282612f5c5760008555612fa3565b82601f10612f7557805160ff1916838001178555612fa3565b82800160010185558215612fa3579182015b82811115612fa2578251825591602001919060010190612f87565b5b509050612fb09190612fb4565b5090565b5b80821115612fcd576000816000905550600101612fb5565b5090565b6000612fe4612fdf84613da2565b613d7d565b90508281526020810184848401111561300057612fff614252565b5b61300b848285614014565b509392505050565b600061302661302184613dd3565b613d7d565b90508281526020810184848401111561304257613041614252565b5b61304d848285614014565b509392505050565b60008135905061306481614928565b92915050565b6000813590506130798161493f565b92915050565b60008135905061308e81614956565b92915050565b6000815190506130a381614956565b92915050565b600082601f8301126130be576130bd61424d565b5b81356130ce848260208601612fd1565b91505092915050565b600082601f8301126130ec576130eb61424d565b5b81356130fc848260208601613013565b91505092915050565b6000813590506131148161496d565b92915050565b6000602082840312156131305761312f61425c565b5b600061313e84828501613055565b91505092915050565b6000806040838503121561315e5761315d61425c565b5b600061316c85828601613055565b925050602061317d85828601613055565b9150509250929050565b6000806000606084860312156131a05761319f61425c565b5b60006131ae86828701613055565b93505060206131bf86828701613055565b92505060406131d086828701613105565b9150509250925092565b600080600080608085870312156131f4576131f361425c565b5b600061320287828801613055565b945050602061321387828801613055565b935050604061322487828801613105565b925050606085013567ffffffffffffffff81111561324557613244614257565b5b613251878288016130a9565b91505092959194509250565b600080604083850312156132745761327361425c565b5b600061328285828601613055565b92505060206132938582860161306a565b9150509250929050565b600080604083850312156132b4576132b361425c565b5b60006132c285828601613055565b92505060206132d385828601613105565b9150509250929050565b6000602082840312156132f3576132f261425c565b5b60006133018482850161306a565b91505092915050565b6000602082840312156133205761331f61425c565b5b600061332e8482850161307f565b91505092915050565b60006020828403121561334d5761334c61425c565b5b600061335b84828501613094565b91505092915050565b60006020828403121561337a5761337961425c565b5b600082013567ffffffffffffffff81111561339857613397614257565b5b6133a4848285016130d7565b91505092915050565b6000602082840312156133c3576133c261425c565b5b60006133d184828501613105565b91505092915050565b60006133e683836138e5565b60208301905092915050565b6133fb81613fa0565b82525050565b600061340c82613e14565b6134168185613e42565b935061342183613e04565b8060005b8381101561345257815161343988826133da565b975061344483613e35565b925050600181019050613425565b5085935050505092915050565b61346881613fb2565b82525050565b600061347982613e1f565b6134838185613e53565b9350613493818560208601614023565b61349c81614261565b840191505092915050565b60006134b282613e2a565b6134bc8185613e6f565b93506134cc818560208601614023565b6134d581614261565b840191505092915050565b60006134eb82613e2a565b6134f58185613e80565b9350613505818560208601614023565b80840191505092915050565b600061351e602b83613e6f565b915061352982614272565b604082019050919050565b6000613541601483613e6f565b915061354c826142c1565b602082019050919050565b6000613564600e83613e6f565b915061356f826142ea565b602082019050919050565b6000613587602b83613e6f565b915061359282614313565b604082019050919050565b60006135aa603283613e6f565b91506135b582614362565b604082019050919050565b60006135cd602683613e6f565b91506135d8826143b1565b604082019050919050565b60006135f0601c83613e6f565b91506135fb82614400565b602082019050919050565b6000613613602483613e6f565b915061361e82614429565b604082019050919050565b6000613636601983613e6f565b915061364182614478565b602082019050919050565b6000613659600983613e6f565b9150613664826144a1565b602082019050919050565b600061367c602c83613e6f565b9150613687826144ca565b604082019050919050565b600061369f601083613e6f565b91506136aa82614519565b602082019050919050565b60006136c2603883613e6f565b91506136cd82614542565b604082019050919050565b60006136e5602a83613e6f565b91506136f082614591565b604082019050919050565b6000613708602983613e6f565b9150613713826145e0565b604082019050919050565b600061372b602083613e6f565b91506137368261462f565b602082019050919050565b600061374e600883613e6f565b915061375982614658565b602082019050919050565b6000613771602c83613e6f565b915061377c82614681565b604082019050919050565b6000613794602083613e6f565b915061379f826146d0565b602082019050919050565b60006137b7602983613e6f565b91506137c2826146f9565b604082019050919050565b60006137da602f83613e6f565b91506137e582614748565b604082019050919050565b60006137fd601183613e6f565b915061380882614797565b602082019050919050565b6000613820602183613e6f565b915061382b826147c0565b604082019050919050565b6000613843600083613e64565b915061384e8261480f565b600082019050919050565b6000613866601083613e6f565b915061387182614812565b602082019050919050565b6000613889603183613e6f565b91506138948261483b565b604082019050919050565b60006138ac602c83613e6f565b91506138b78261488a565b604082019050919050565b60006138cf603083613e6f565b91506138da826148d9565b604082019050919050565b6138ee8161400a565b82525050565b6138fd8161400a565b82525050565b600061390f82856134e0565b915061391b82846134e0565b91508190509392505050565b600061393282613836565b9150819050919050565b600060208201905061395160008301846133f2565b92915050565b600060808201905061396c60008301876133f2565b61397960208301866133f2565b61398660408301856138f4565b8181036060830152613998818461346e565b905095945050505050565b600060208201905081810360008301526139bd8184613401565b905092915050565b60006020820190506139da600083018461345f565b92915050565b600060208201905081810360008301526139fa81846134a7565b905092915050565b60006020820190508181036000830152613a1b81613511565b9050919050565b60006020820190508181036000830152613a3b81613534565b9050919050565b60006020820190508181036000830152613a5b81613557565b9050919050565b60006020820190508181036000830152613a7b8161357a565b9050919050565b60006020820190508181036000830152613a9b8161359d565b9050919050565b60006020820190508181036000830152613abb816135c0565b9050919050565b60006020820190508181036000830152613adb816135e3565b9050919050565b60006020820190508181036000830152613afb81613606565b9050919050565b60006020820190508181036000830152613b1b81613629565b9050919050565b60006020820190508181036000830152613b3b8161364c565b9050919050565b60006020820190508181036000830152613b5b8161366f565b9050919050565b60006020820190508181036000830152613b7b81613692565b9050919050565b60006020820190508181036000830152613b9b816136b5565b9050919050565b60006020820190508181036000830152613bbb816136d8565b9050919050565b60006020820190508181036000830152613bdb816136fb565b9050919050565b60006020820190508181036000830152613bfb8161371e565b9050919050565b60006020820190508181036000830152613c1b81613741565b9050919050565b60006020820190508181036000830152613c3b81613764565b9050919050565b60006020820190508181036000830152613c5b81613787565b9050919050565b60006020820190508181036000830152613c7b816137aa565b9050919050565b60006020820190508181036000830152613c9b816137cd565b9050919050565b60006020820190508181036000830152613cbb816137f0565b9050919050565b60006020820190508181036000830152613cdb81613813565b9050919050565b60006020820190508181036000830152613cfb81613859565b9050919050565b60006020820190508181036000830152613d1b8161387c565b9050919050565b60006020820190508181036000830152613d3b8161389f565b9050919050565b60006020820190508181036000830152613d5b816138c2565b9050919050565b6000602082019050613d7760008301846138f4565b92915050565b6000613d87613d98565b9050613d938282614088565b919050565b6000604051905090565b600067ffffffffffffffff821115613dbd57613dbc61421e565b5b613dc682614261565b9050602081019050919050565b600067ffffffffffffffff821115613dee57613ded61421e565b5b613df782614261565b9050602081019050919050565b6000819050602082019050919050565b600081519050919050565b600081519050919050565b600081519050919050565b6000602082019050919050565b600082825260208201905092915050565b600082825260208201905092915050565b600081905092915050565b600082825260208201905092915050565b600081905092915050565b6000613e968261400a565b9150613ea18361400a565b9250827fffffffffffffffffffffffffffffffffffffffffffffffffffffffffffffffff03821115613ed657613ed5614133565b5b828201905092915050565b6000613eec8261400a565b9150613ef78361400a565b925082613f0757613f06614162565b5b828204905092915050565b6000613f1d8261400a565b9150613f288361400a565b9250817fffffffffffffffffffffffffffffffffffffffffffffffffffffffffffffffff0483118215151615613f6157613f60614133565b5b828202905092915050565b6000613f778261400a565b9150613f828361400a565b925082821015613f9557613f94614133565b5b828203905092915050565b6000613fab82613fea565b9050919050565b60008115159050919050565b60007fffffffff0000000000000000000000000000000000000000000000000000000082169050919050565b600073ffffffffffffffffffffffffffffffffffffffff82169050919050565b6000819050919050565b82818337600083830152505050565b60005b83811015614041578082015181840152602081019050614026565b83811115614050576000848401525b50505050565b6000600282049050600182168061406e57607f821691505b6020821081141561408257614081614191565b5b50919050565b61409182614261565b810181811067ffffffffffffffff821117156140b0576140af61421e565b5b80604052505050565b60006140c48261400a565b91507fffffffffffffffffffffffffffffffffffffffffffffffffffffffffffffffff8214156140f7576140f6614133565b5b600182019050919050565b600061410d8261400a565b91506141188361400a565b92508261412857614127614162565b5b828206905092915050565b7f4e487b7100000000000000000000000000000000000000000000000000000000600052601160045260246000fd5b7f4e487b7100000000000000000000000000000000000000000000000000000000600052601260045260246000fd5b7f4e487b7100000000000000000000000000000000000000000000000000000000600052602260045260246000fd5b7f4e487b7100000000000000000000000000000000000000000000000000000000600052603160045260246000fd5b7f4e487b7100000000000000000000000000000000000000000000000000000000600052603260045260246000fd5b7f4e487b7100000000000000000000000000000000000000000000000000000000600052604160045260246000fd5b600080fd5b600080fd5b600080fd5b600080fd5b6000601f19601f8301169050919050565b7f4552433732315061757361626c653a20746f6b656e207472616e73666572207760008201527f68696c6520706175736564000000000000000000000000000000000000000000602082015250565b7f5061757361626c653a206e6f7420706175736564000000000000000000000000600082015250565b7f45786365656473206e756d626572000000000000000000000000000000000000600082015250565b7f455243373231456e756d657261626c653a206f776e657220696e646578206f7560008201527f74206f6620626f756e6473000000000000000000000000000000000000000000602082015250565b7f4552433732313a207472616e7366657220746f206e6f6e20455243373231526560008201527f63656976657220696d706c656d656e7465720000000000000000000000000000602082015250565b7f4f776e61626c653a206e6577206f776e657220697320746865207a65726f206160008201527f6464726573730000000000000000000000000000000000000000000000000000602082015250565b7f4552433732313a20746f6b656e20616c7265616479206d696e74656400000000600082015250565b7f4552433732313a207472616e7366657220746f20746865207a65726f2061646460008201527f7265737300000000000000000000000000000000000000000000000000000000602082015250565b7f4552433732313a20617070726f766520746f2063616c6c657200000000000000600082015250565b7f4d6178206c696d69740000000000000000000000000000000000000000000000600082015250565b7f4552433732313a206f70657261746f7220717565727920666f72206e6f6e657860008201527f697374656e7420746f6b656e0000000000000000000000000000000000000000602082015250565b7f5061757361626c653a2070617573656400000000000000000000000000000000600082015250565b7f4552433732313a20617070726f76652063616c6c6572206973206e6f74206f7760008201527f6e6572206e6f7220617070726f76656420666f7220616c6c0000000000000000602082015250565b7f4552433732313a2062616c616e636520717565727920666f7220746865207a6560008201527f726f206164647265737300000000000000000000000000000000000000000000602082015250565b7f4552433732313a206f776e657220717565727920666f72206e6f6e657869737460008201527f656e7420746f6b656e0000000000000000000000000000000000000000000000602082015250565b7f4552433732313a206d696e7420746f20746865207a65726f2061646472657373600082015250565b7f53616c6520656e64000000000000000000000000000000000000000000000000600082015250565b7f4552433732313a20617070726f76656420717565727920666f72206e6f6e657860008201527f697374656e7420746f6b656e0000000000000000000000000000000000000000602082015250565b7f4f776e61626c653a2063616c6c6572206973206e6f7420746865206f776e6572600082015250565b7f4552433732313a207472616e73666572206f6620746f6b656e2074686174206960008201527f73206e6f74206f776e0000000000000000000000000000000000000000000000602082015250565b7f4552433732314d657461646174613a2055524920717565727920666f72206e6f60008201527f6e6578697374656e7420746f6b656e0000000000000000000000000000000000602082015250565b7f56616c75652062656c6f77207072696365000000000000000000000000000000600082015250565b7f4552433732313a20617070726f76616c20746f2063757272656e74206f776e6560008201527f7200000000000000000000000000000000000000000000000000000000000000602082015250565b50565b7f5472616e73666572206661696c65642e00000000000000000000000000000000600082015250565b7f4552433732313a207472616e736665722063616c6c6572206973206e6f74206f60008201527f776e6572206e6f7220617070726f766564000000000000000000000000000000602082015250565b7f455243373231456e756d657261626c653a20676c6f62616c20696e646578206f60008201527f7574206f6620626f756e64730000000000000000000000000000000000000000602082015250565b7f4552433732314275726e61626c653a2063616c6c6572206973206e6f74206f7760008201527f6e6572206e6f7220617070726f76656400000000000000000000000000000000602082015250565b61493181613fa0565b811461493c57600080fd5b50565b61494881613fb2565b811461495357600080fd5b50565b61495f81613fbe565b811461496a57600080fd5b50565b6149768161400a565b811461498157600080fd5b5056fea26469706673582212207483d533c73110f27c27972378bf2f17156006e83ce609bafe606c15b3d7ef5864736f6c63430008070033",
  "immutableReferences": {},
  "source": "// SPDX-License-Identifier: MIT\npragma solidity 0.8.7;\n\nimport \"@openzeppelin/contracts/token/ERC721/ERC721.sol\";\nimport \"@openzeppelin/contracts/token/ERC721/extensions/ERC721Enumerable.sol\";\nimport \"@openzeppelin/contracts/token/ERC721/extensions/ERC721Burnable.sol\";\nimport \"@openzeppelin/contracts/access/Ownable.sol\";\nimport \"@openzeppelin/contracts/utils/math/SafeMath.sol\";\nimport \"@openzeppelin/contracts/utils/Counters.sol\";\n\n/**\n * @dev ERC721 token with pausable token transfers, minting and burning.\n *\n * Useful for scenarios such as preventing trades until the end of an evaluation\n * period, or having an emergency switch for freezing all token transfers in the\n * event of a large bug.\n */\n\nabstract contract Pausable is Context {\n    /**\n     * @dev Emitted when the pause is triggered by `account`.\n     */\n    event Paused(address account);\n\n    /**\n     * @dev Emitted when the pause is lifted by `account`.\n     */\n    event Unpaused(address account);\n\n    bool private _paused;\n\n    /**\n     * @dev Initializes the contract in unpaused state.\n     */\n    constructor() {\n        _paused = false;\n    }\n\n    /**\n     * @dev Returns true if the contract is paused, and false otherwise.\n     */\n    function paused() public view virtual returns (bool) {\n        return _paused;\n    }\n\n    /**\n     * @dev Modifier to make a function callable only when the contract is not paused.\n     *\n     * Requirements:\n     *\n     * - The contract must not be paused.\n     */\n    modifier whenNotPaused() {\n        require(!paused(), \"Pausable: paused\");\n        _;\n    }\n\n    /**\n     * @dev Modifier to make a function callable only when the contract is paused.\n     *\n     * Requirements:\n     *\n     * - The contract must be paused.\n     */\n    modifier whenPaused() {\n        require(paused(), \"Pausable: not paused\");\n        _;\n    }\n\n    /**\n     * @dev Triggers stopped state.\n     *\n     * Requirements:\n     *\n     * - The contract must not be paused.\n     */\n    function _pause() internal virtual whenNotPaused {\n        _paused = true;\n        emit Paused(_msgSender());\n    }\n\n    /**\n     * @dev Returns to normal state.\n     *\n     * Requirements:\n     *\n     * - The contract must be paused.\n     */\n    function _unpause() internal virtual whenPaused {\n        _paused = false;\n        emit Unpaused(_msgSender());\n    }\n}\n\nabstract contract ERC721Pausable is ERC721, Ownable, Pausable {\n    /**\n     * @dev See {ERC721-_beforeTokenTransfer}.\n     *\n     * Requirements:\n     *\n     * - the contract must not be paused.\n     */\n    function _beforeTokenTransfer(\n        address from,\n        address to,\n        uint256 tokenId\n    ) internal virtual override {\n        super._beforeTokenTransfer(from, to, tokenId);\n        if (_msgSender() != owner()) {\n            require(!paused(), \"ERC721Pausable: token transfer while paused\");\n        }\n    }\n}\n\ncontract MyNFT is ERC721Enumerable, Ownable, ERC721Burnable, ERC721Pausable {\n    using SafeMath for uint256;\n    using Counters for Counters.Counter;\n\n    Counters.Counter private _tokenIdTracker;\n\n    uint256 public constant MAX_ELEMENTS = 20;\n    uint256 public constant PRICE = 0.01 ether;\n    uint256 public constant MAX_BY_MINT = 20;\n    uint256 public constant reveal_timestamp = 1627588800; // Thu Jul 29 2021 20:00:00 GMT+0000\n    address public constant creatorAddress = 0x730bF3B67090511A64ABA060FbD2F7903536321E;\n    address public constant devAddress = 0x730bF3B67090511A64ABA060FbD2F7903536321E;\n    string public baseTokenURI;\n\n    event CreatePenguin(uint256 indexed id);\n    constructor(string memory baseURI) ERC721(\"Crocs\", \"CC\") {\n        setBaseURI(baseURI);\n        //pause(true);\n    }\n\n    modifier saleIsOpen {\n        require(_totalSupply() <= MAX_ELEMENTS, \"Sale end\");\n        if (_msgSender() != owner()) {\n            require(!paused(), \"Pausable: paused\");\n        }\n        _;\n    }\n    function _totalSupply() internal view returns (uint) {\n        return _tokenIdTracker.current();\n    }\n    function totalMint() public view returns (uint256) {\n        return _totalSupply();\n    }\n    function mint(address _to, uint256 _count) public payable saleIsOpen {\n        uint256 total = _totalSupply();\n        require(total + _count <= MAX_ELEMENTS, \"Max limit\");\n        require(total <= MAX_ELEMENTS, \"Sale end\");\n        require(_count <= MAX_BY_MINT, \"Exceeds number\");\n        require(msg.value >= price(_count), \"Value below price\");\n\n        for (uint256 i = 0; i < _count; i++) {\n            _mintAnElement(_to);\n        }\n    }\n    function _mintAnElement(address _to) private {\n        uint id = _totalSupply();\n        _tokenIdTracker.increment();\n        _safeMint(_to, id);\n        emit CreatePenguin(id);\n    }\n    function price(uint256 _count) public pure returns (uint256) {\n        return PRICE.mul(_count);\n    }\n\n    function _baseURI() internal view virtual override returns (string memory) {\n        return baseTokenURI;\n    }\n\n    function setBaseURI(string memory baseURI) public onlyOwner {\n        baseTokenURI = baseURI;\n    }\n\n    function walletOfOwner(address _owner) external view returns (uint256[] memory) {\n        uint256 tokenCount = balanceOf(_owner);\n\n        uint256[] memory tokensId = new uint256[](tokenCount);\n        for (uint256 i = 0; i < tokenCount; i++) {\n            tokensId[i] = tokenOfOwnerByIndex(_owner, i);\n        }\n\n        return tokensId;\n    }\n\n    function pause(bool val) public onlyOwner {\n        if (val == true) {\n            _pause();\n            return;\n        }\n        _unpause();\n    }\n\n    function withdrawAll() public payable onlyOwner {\n        uint256 balance = address(this).balance;\n        require(balance > 0);\n        _widthdraw(devAddress, balance.mul(35).div(100));\n        _widthdraw(creatorAddress, address(this).balance);\n    }\n\n    function _widthdraw(address _address, uint256 _amount) private {\n        (bool success, ) = _address.call{value: _amount}(\"\");\n        require(success, \"Transfer failed.\");\n    }\n\n    function _beforeTokenTransfer(\n        address from,\n        address to,\n        uint256 tokenId\n    ) internal virtual override(ERC721, ERC721Enumerable, ERC721Pausable) {\n        super._beforeTokenTransfer(from, to, tokenId);\n    }\n\n    function supportsInterface(bytes4 interfaceId) public view virtual override(ERC721, ERC721Enumerable) returns (bool) {\n        return super.supportsInterface(interfaceId);\n    }\n    \n}",
  "sourcePath": "/home/turupawn/Projects/MyNFT/contracts/MyNFT.sol",
  "compiler": {
    "name": "solc",
    "version": "0.8.7+commit.e28d00a7.Emscripten.clang"
  },
  "schemaVersion": "3.4.3",
  "updatedAt": "2021-09-03T05:50:32.965Z",
  "networkType": "ethereum",
  "devdoc": {
    "kind": "dev",
    "methods": {
      "approve(address,uint256)": {
        "details": "See {IERC721-approve}."
      },
      "balanceOf(address)": {
        "details": "See {IERC721-balanceOf}."
      },
      "burn(uint256)": {
        "details": "Burns `tokenId`. See {ERC721-_burn}. Requirements: - The caller must own `tokenId` or be an approved operator."
      },
      "getApproved(uint256)": {
        "details": "See {IERC721-getApproved}."
      },
      "isApprovedForAll(address,address)": {
        "details": "See {IERC721-isApprovedForAll}."
      },
      "name()": {
        "details": "See {IERC721Metadata-name}."
      },
      "owner()": {
        "details": "Returns the address of the current owner."
      },
      "ownerOf(uint256)": {
        "details": "See {IERC721-ownerOf}."
      },
      "paused()": {
        "details": "Returns true if the contract is paused, and false otherwise."
      },
      "renounceOwnership()": {
        "details": "Leaves the contract without owner. It will not be possible to call `onlyOwner` functions anymore. Can only be called by the current owner. NOTE: Renouncing ownership will leave the contract without an owner, thereby removing any functionality that is only available to the owner."
      },
      "safeTransferFrom(address,address,uint256)": {
        "details": "See {IERC721-safeTransferFrom}."
      },
      "safeTransferFrom(address,address,uint256,bytes)": {
        "details": "See {IERC721-safeTransferFrom}."
      },
      "setApprovalForAll(address,bool)": {
        "details": "See {IERC721-setApprovalForAll}."
      },
      "symbol()": {
        "details": "See {IERC721Metadata-symbol}."
      },
      "tokenByIndex(uint256)": {
        "details": "See {IERC721Enumerable-tokenByIndex}."
      },
      "tokenOfOwnerByIndex(address,uint256)": {
        "details": "See {IERC721Enumerable-tokenOfOwnerByIndex}."
      },
      "tokenURI(uint256)": {
        "details": "See {IERC721Metadata-tokenURI}."
      },
      "totalSupply()": {
        "details": "See {IERC721Enumerable-totalSupply}."
      },
      "transferFrom(address,address,uint256)": {
        "details": "See {IERC721-transferFrom}."
      },
      "transferOwnership(address)": {
        "details": "Transfers ownership of the contract to a new account (`newOwner`). Can only be called by the current owner."
      }
    },
    "version": 1
  },
  "userdoc": {
    "kind": "user",
    "methods": {},
    "version": 1
  }
}