{
  "contractName": "FunkyCrocs",
  "abi": [
    {
      "inputs": [],
      "stateMutability": "nonpayable",
      "type": "constructor"
    },
    {
      "anonymous": false,
      "inputs": [
        {
          "indexed": true,
          "internalType": "address",
          "name": "owner",
          "type": "address"
        },
        {
          "indexed": true,
          "internalType": "address",
          "name": "approved",
          "type": "address"
        },
        {
          "indexed": true,
          "internalType": "uint256",
          "name": "tokenId",
          "type": "uint256"
        }
      ],
      "name": "Approval",
      "type": "event"
    },
    {
      "anonymous": false,
      "inputs": [
        {
          "indexed": true,
          "internalType": "address",
          "name": "owner",
          "type": "address"
        },
        {
          "indexed": true,
          "internalType": "address",
          "name": "operator",
          "type": "address"
        },
        {
          "indexed": false,
          "internalType": "bool",
          "name": "approved",
          "type": "bool"
        }
      ],
      "name": "ApprovalForAll",
      "type": "event"
    },
    {
      "anonymous": false,
      "inputs": [
        {
          "indexed": true,
          "internalType": "address",
          "name": "previousOwner",
          "type": "address"
        },
        {
          "indexed": true,
          "internalType": "address",
          "name": "newOwner",
          "type": "address"
        }
      ],
      "name": "OwnershipTransferred",
      "type": "event"
    },
    {
      "anonymous": false,
      "inputs": [
        {
          "indexed": true,
          "internalType": "address",
          "name": "from",
          "type": "address"
        },
        {
          "indexed": true,
          "internalType": "address",
          "name": "to",
          "type": "address"
        },
        {
          "indexed": true,
          "internalType": "uint256",
          "name": "tokenId",
          "type": "uint256"
        }
      ],
      "name": "Transfer",
      "type": "event"
    },
    {
      "inputs": [],
      "name": "MAX_MINT_PER_TX",
      "outputs": [
        {
          "internalType": "uint256",
          "name": "",
          "type": "uint256"
        }
      ],
      "stateMutability": "view",
      "type": "function",
      "constant": true
    },
    {
      "inputs": [],
      "name": "MAX_PRESALE_SUPPLY",
      "outputs": [
        {
          "internalType": "uint256",
          "name": "",
          "type": "uint256"
        }
      ],
      "stateMutability": "view",
      "type": "function",
      "constant": true
    },
    {
      "inputs": [],
      "name": "MAX_SUPPLY",
      "outputs": [
        {
          "internalType": "uint256",
          "name": "",
          "type": "uint256"
        }
      ],
      "stateMutability": "view",
      "type": "function",
      "constant": true
    },
    {
      "inputs": [],
      "name": "a1",
      "outputs": [
        {
          "internalType": "address",
          "name": "",
          "type": "address"
        }
      ],
      "stateMutability": "view",
      "type": "function",
      "constant": true
    },
    {
      "inputs": [],
      "name": "a2",
      "outputs": [
        {
          "internalType": "address",
          "name": "",
          "type": "address"
        }
      ],
      "stateMutability": "view",
      "type": "function",
      "constant": true
    },
    {
      "inputs": [],
      "name": "a3",
      "outputs": [
        {
          "internalType": "address",
          "name": "",
          "type": "address"
        }
      ],
      "stateMutability": "view",
      "type": "function",
      "constant": true
    },
    {
      "inputs": [
        {
          "internalType": "address",
          "name": "to",
          "type": "address"
        },
        {
          "internalType": "uint256",
          "name": "tokenId",
          "type": "uint256"
        }
      ],
      "name": "approve",
      "outputs": [],
      "stateMutability": "nonpayable",
      "type": "function"
    },
    {
      "inputs": [
        {
          "internalType": "address",
          "name": "owner",
          "type": "address"
        }
      ],
      "name": "balanceOf",
      "outputs": [
        {
          "internalType": "uint256",
          "name": "",
          "type": "uint256"
        }
      ],
      "stateMutability": "view",
      "type": "function",
      "constant": true
    },
    {
      "inputs": [],
      "name": "baseTokenURI",
      "outputs": [
        {
          "internalType": "string",
          "name": "",
          "type": "string"
        }
      ],
      "stateMutability": "view",
      "type": "function",
      "constant": true
    },
    {
      "inputs": [
        {
          "internalType": "uint256",
          "name": "tokenId",
          "type": "uint256"
        }
      ],
      "name": "getApproved",
      "outputs": [
        {
          "internalType": "address",
          "name": "",
          "type": "address"
        }
      ],
      "stateMutability": "view",
      "type": "function",
      "constant": true
    },
    {
      "inputs": [],
      "name": "initial_price",
      "outputs": [
        {
          "internalType": "uint256",
          "name": "",
          "type": "uint256"
        }
      ],
      "stateMutability": "view",
      "type": "function",
      "constant": true
    },
    {
      "inputs": [
        {
          "internalType": "address",
          "name": "owner",
          "type": "address"
        },
        {
          "internalType": "address",
          "name": "operator",
          "type": "address"
        }
      ],
      "name": "isApprovedForAll",
      "outputs": [
        {
          "internalType": "bool",
          "name": "",
          "type": "bool"
        }
      ],
      "stateMutability": "view",
      "type": "function",
      "constant": true
    },
    {
      "inputs": [],
      "name": "name",
      "outputs": [
        {
          "internalType": "string",
          "name": "",
          "type": "string"
        }
      ],
      "stateMutability": "view",
      "type": "function",
      "constant": true
    },
    {
      "inputs": [],
      "name": "owner",
      "outputs": [
        {
          "internalType": "address",
          "name": "",
          "type": "address"
        }
      ],
      "stateMutability": "view",
      "type": "function",
      "constant": true
    },
    {
      "inputs": [
        {
          "internalType": "uint256",
          "name": "tokenId",
          "type": "uint256"
        }
      ],
      "name": "ownerOf",
      "outputs": [
        {
          "internalType": "address",
          "name": "",
          "type": "address"
        }
      ],
      "stateMutability": "view",
      "type": "function",
      "constant": true
    },
    {
      "inputs": [],
      "name": "presaleActive",
      "outputs": [
        {
          "internalType": "bool",
          "name": "",
          "type": "bool"
        }
      ],
      "stateMutability": "view",
      "type": "function",
      "constant": true
    },
    {
      "inputs": [],
      "name": "price",
      "outputs": [
        {
          "internalType": "uint256",
          "name": "",
          "type": "uint256"
        }
      ],
      "stateMutability": "view",
      "type": "function",
      "constant": true
    },
    {
      "inputs": [],
      "name": "renounceOwnership",
      "outputs": [],
      "stateMutability": "nonpayable",
      "type": "function"
    },
    {
      "inputs": [],
      "name": "reserved",
      "outputs": [
        {
          "internalType": "uint256",
          "name": "",
          "type": "uint256"
        }
      ],
      "stateMutability": "view",
      "type": "function",
      "constant": true
    },
    {
      "inputs": [
        {
          "internalType": "address",
          "name": "from",
          "type": "address"
        },
        {
          "internalType": "address",
          "name": "to",
          "type": "address"
        },
        {
          "internalType": "uint256",
          "name": "tokenId",
          "type": "uint256"
        }
      ],
      "name": "safeTransferFrom",
      "outputs": [],
      "stateMutability": "nonpayable",
      "type": "function"
    },
    {
      "inputs": [
        {
          "internalType": "address",
          "name": "from",
          "type": "address"
        },
        {
          "internalType": "address",
          "name": "to",
          "type": "address"
        },
        {
          "internalType": "uint256",
          "name": "tokenId",
          "type": "uint256"
        },
        {
          "internalType": "bytes",
          "name": "_data",
          "type": "bytes"
        }
      ],
      "name": "safeTransferFrom",
      "outputs": [],
      "stateMutability": "nonpayable",
      "type": "function"
    },
    {
      "inputs": [],
      "name": "saleActive",
      "outputs": [
        {
          "internalType": "bool",
          "name": "",
          "type": "bool"
        }
      ],
      "stateMutability": "view",
      "type": "function",
      "constant": true
    },
    {
      "inputs": [
        {
          "internalType": "address",
          "name": "operator",
          "type": "address"
        },
        {
          "internalType": "bool",
          "name": "approved",
          "type": "bool"
        }
      ],
      "name": "setApprovalForAll",
      "outputs": [],
      "stateMutability": "nonpayable",
      "type": "function"
    },
    {
      "inputs": [
        {
          "internalType": "bytes4",
          "name": "interfaceId",
          "type": "bytes4"
        }
      ],
      "name": "supportsInterface",
      "outputs": [
        {
          "internalType": "bool",
          "name": "",
          "type": "bool"
        }
      ],
      "stateMutability": "view",
      "type": "function",
      "constant": true
    },
    {
      "inputs": [],
      "name": "symbol",
      "outputs": [
        {
          "internalType": "string",
          "name": "",
          "type": "string"
        }
      ],
      "stateMutability": "view",
      "type": "function",
      "constant": true
    },
    {
      "inputs": [
        {
          "internalType": "uint256",
          "name": "index",
          "type": "uint256"
        }
      ],
      "name": "tokenByIndex",
      "outputs": [
        {
          "internalType": "uint256",
          "name": "",
          "type": "uint256"
        }
      ],
      "stateMutability": "view",
      "type": "function",
      "constant": true
    },
    {
      "inputs": [
        {
          "internalType": "address",
          "name": "owner",
          "type": "address"
        },
        {
          "internalType": "uint256",
          "name": "index",
          "type": "uint256"
        }
      ],
      "name": "tokenOfOwnerByIndex",
      "outputs": [
        {
          "internalType": "uint256",
          "name": "",
          "type": "uint256"
        }
      ],
      "stateMutability": "view",
      "type": "function",
      "constant": true
    },
    {
      "inputs": [
        {
          "internalType": "uint256",
          "name": "tokenId",
          "type": "uint256"
        }
      ],
      "name": "tokenURI",
      "outputs": [
        {
          "internalType": "string",
          "name": "",
          "type": "string"
        }
      ],
      "stateMutability": "view",
      "type": "function",
      "constant": true
    },
    {
      "inputs": [],
      "name": "totalSupply",
      "outputs": [
        {
          "internalType": "uint256",
          "name": "",
          "type": "uint256"
        }
      ],
      "stateMutability": "view",
      "type": "function",
      "constant": true
    },
    {
      "inputs": [
        {
          "internalType": "address",
          "name": "from",
          "type": "address"
        },
        {
          "internalType": "address",
          "name": "to",
          "type": "address"
        },
        {
          "internalType": "uint256",
          "name": "tokenId",
          "type": "uint256"
        }
      ],
      "name": "transferFrom",
      "outputs": [],
      "stateMutability": "nonpayable",
      "type": "function"
    },
    {
      "inputs": [
        {
          "internalType": "address",
          "name": "newOwner",
          "type": "address"
        }
      ],
      "name": "transferOwnership",
      "outputs": [],
      "stateMutability": "nonpayable",
      "type": "function"
    },
    {
      "inputs": [],
      "name": "whitelistActive",
      "outputs": [
        {
          "internalType": "bool",
          "name": "",
          "type": "bool"
        }
      ],
      "stateMutability": "view",
      "type": "function",
      "constant": true
    },
    {
      "inputs": [
        {
          "internalType": "address",
          "name": "",
          "type": "address"
        }
      ],
      "name": "whitelistReserved",
      "outputs": [
        {
          "internalType": "uint256",
          "name": "",
          "type": "uint256"
        }
      ],
      "stateMutability": "view",
      "type": "function",
      "constant": true
    },
    {
      "inputs": [
        {
          "internalType": "address",
          "name": "addr",
          "type": "address"
        }
      ],
      "name": "tokensOfOwner",
      "outputs": [
        {
          "internalType": "uint256[]",
          "name": "",
          "type": "uint256[]"
        }
      ],
      "stateMutability": "view",
      "type": "function",
      "constant": true
    },
    {
      "inputs": [
        {
          "internalType": "uint256",
          "name": "_amount",
          "type": "uint256"
        }
      ],
      "name": "mintWhitelist",
      "outputs": [],
      "stateMutability": "payable",
      "type": "function",
      "payable": true
    },
    {
      "inputs": [
        {
          "internalType": "uint256",
          "name": "_amount",
          "type": "uint256"
        }
      ],
      "name": "mintPresale",
      "outputs": [],
      "stateMutability": "payable",
      "type": "function",
      "payable": true
    },
    {
      "inputs": [
        {
          "internalType": "uint256",
          "name": "_amount",
          "type": "uint256"
        }
      ],
      "name": "mintToken",
      "outputs": [],
      "stateMutability": "payable",
      "type": "function",
      "payable": true
    },
    {
      "inputs": [
        {
          "internalType": "uint256",
          "name": "_amount",
          "type": "uint256"
        }
      ],
      "name": "mintReserved",
      "outputs": [],
      "stateMutability": "nonpayable",
      "type": "function"
    },
    {
      "inputs": [
        {
          "internalType": "address[]",
          "name": "_a",
          "type": "address[]"
        },
        {
          "internalType": "uint256[]",
          "name": "_amount",
          "type": "uint256[]"
        }
      ],
      "name": "editWhitelistReserved",
      "outputs": [],
      "stateMutability": "nonpayable",
      "type": "function"
    },
    {
      "inputs": [
        {
          "internalType": "bool",
          "name": "val",
          "type": "bool"
        }
      ],
      "name": "setWhitelistActive",
      "outputs": [],
      "stateMutability": "nonpayable",
      "type": "function"
    },
    {
      "inputs": [
        {
          "internalType": "bool",
          "name": "val",
          "type": "bool"
        }
      ],
      "name": "setPresaleActive",
      "outputs": [],
      "stateMutability": "nonpayable",
      "type": "function"
    },
    {
      "inputs": [
        {
          "internalType": "bool",
          "name": "val",
          "type": "bool"
        }
      ],
      "name": "setSaleActive",
      "outputs": [],
      "stateMutability": "nonpayable",
      "type": "function"
    },
    {
      "inputs": [
        {
          "internalType": "string",
          "name": "baseURI",
          "type": "string"
        }
      ],
      "name": "setBaseURI",
      "outputs": [],
      "stateMutability": "nonpayable",
      "type": "function"
    },
    {
      "inputs": [
        {
          "internalType": "uint256",
          "name": "newPrice",
          "type": "uint256"
        }
      ],
      "name": "setPrice",
      "outputs": [],
      "stateMutability": "nonpayable",
      "type": "function"
    },
    {
      "inputs": [
        {
          "internalType": "address[]",
          "name": "_a",
          "type": "address[]"
        }
      ],
      "name": "setAddresses",
      "outputs": [],
      "stateMutability": "nonpayable",
      "type": "function"
    },
    {
      "inputs": [
        {
          "internalType": "uint256",
          "name": "amount",
          "type": "uint256"
        }
      ],
      "name": "withdrawTeam",
      "outputs": [],
      "stateMutability": "payable",
      "type": "function",
      "payable": true
    }
  ],
  "bytecode": "0x60806040526000600a60146101000a81548160ff0219169083151502179055506000600a60156101000a81548160ff0219169083151502179055506000600a60166101000a81548160ff0219169083151502179055506096600b55668e1bc9bf040000600c556040518060400160405280601a81526020017f68747470733a2f2f6170692e66756e6b7963726f63732e696f2f000000000000815250600e9080519060200190620000b29291906200025e565b50348015620000c057600080fd5b506040518060400160405280600b81526020017f46756e6b792043726f63730000000000000000000000000000000000000000008152506040518060400160405280600381526020017f464e4b00000000000000000000000000000000000000000000000000000000008152508160009080519060200190620001459291906200025e565b5080600190805190602001906200015e9291906200025e565b50505062000181620001756200019060201b60201c565b6200019860201b60201c565b600c54600d8190555062000373565b600033905090565b6000600a60009054906101000a900473ffffffffffffffffffffffffffffffffffffffff16905081600a60006101000a81548173ffffffffffffffffffffffffffffffffffffffff021916908373ffffffffffffffffffffffffffffffffffffffff1602179055508173ffffffffffffffffffffffffffffffffffffffff168173ffffffffffffffffffffffffffffffffffffffff167f8be0079c531659141344cd1fd0a4f28419497f9722a3daafe3b4186f6b6457e060405160405180910390a35050565b8280546200026c906200033d565b90600052602060002090601f016020900481019282620002905760008555620002dc565b82601f10620002ab57805160ff1916838001178555620002dc565b82800160010185558215620002dc579182015b82811115620002db578251825591602001919060010190620002be565b5b509050620002eb9190620002ef565b5090565b5b808211156200030a576000816000905550600101620002f0565b5090565b7f4e487b7100000000000000000000000000000000000000000000000000000000600052602260045260246000fd5b600060028204905060018216806200035657607f821691505b602082108114156200036d576200036c6200030e565b5b50919050565b61534180620003836000396000f3fe60806040526004361061027d5760003560e01c80638462151c1161014f578063b88d4fde116100c1578063e985e9c51161007a578063e985e9c514610992578063f14c0bcc146109cf578063f2fde38b146109f8578063f759867a14610a21578063fd2b049214610a3d578063fe60d12c14610a595761027d565b8063b88d4fde14610893578063b9571721146108bc578063c3b754dc146108e5578063c634d0321461090e578063c87b56dd1461092a578063d547cfb7146109675761027d565b806395d89b411161011357806395d89b4114610795578063969e9d0c146107c05780639a5d140b146107eb578063a035b1fe14610814578063a22cb4651461083f578063ab3f5a1a146108685761027d565b80638462151c146106ae5780638da5cb5b146106eb5780638ecad7211461071657806391b7f5ed146107415780639426eef81461076a5761027d565b806342842e0e116101f357806368428a1b116101ac57806368428a1b1461059e5780636b8dc355146105c957806370a08231146105f4578063715018a61461063157806372e3a3eb14610648578063841718a6146106855761027d565b806342842e0e1461048b5780634618163e146104b45780634f6ccce7146104d057806353135ca01461050d57806355f804b3146105385780636352211e146105615761027d565b8063119552a111610245578063119552a11461037b57806318160ddd146103a657806323b872dd146103d15780632f745c59146103fa57806332cb6b0c146104375780633f8121a2146104625761027d565b806301ffc9a71461028257806302ce5813146102bf57806306fdde03146102ea578063081812fc14610315578063095ea7b314610352575b600080fd5b34801561028e57600080fd5b506102a960048036038101906102a49190613772565b610a84565b6040516102b691906137ba565b60405180910390f35b3480156102cb57600080fd5b506102d4610afe565b6040516102e191906137ba565b60405180910390f35b3480156102f657600080fd5b506102ff610b11565b60405161030c919061386e565b60405180910390f35b34801561032157600080fd5b5061033c600480360381019061033791906138c6565b610ba3565b6040516103499190613934565b60405180910390f35b34801561035e57600080fd5b506103796004803603810190610374919061397b565b610c28565b005b34801561038757600080fd5b50610390610d40565b60405161039d9190613934565b60405180910390f35b3480156103b257600080fd5b506103bb610d66565b6040516103c891906139ca565b60405180910390f35b3480156103dd57600080fd5b506103f860048036038101906103f391906139e5565b610d73565b005b34801561040657600080fd5b50610421600480360381019061041c919061397b565b610dd3565b60405161042e91906139ca565b60405180910390f35b34801561044357600080fd5b5061044c610e78565b60405161045991906139ca565b60405180910390f35b34801561046e57600080fd5b5061048960048036038101906104849190613a64565b610e7e565b005b34801561049757600080fd5b506104b260048036038101906104ad91906139e5565b610f17565b005b6104ce60048036038101906104c991906138c6565b610f37565b005b3480156104dc57600080fd5b506104f760048036038101906104f291906138c6565b611183565b60405161050491906139ca565b60405180910390f35b34801561051957600080fd5b506105226111f4565b60405161052f91906137ba565b60405180910390f35b34801561054457600080fd5b5061055f600480360381019061055a9190613bc6565b611207565b005b34801561056d57600080fd5b50610588600480360381019061058391906138c6565b61129d565b6040516105959190613934565b60405180910390f35b3480156105aa57600080fd5b506105b361134f565b6040516105c091906137ba565b60405180910390f35b3480156105d557600080fd5b506105de611362565b6040516105eb91906139ca565b60405180910390f35b34801561060057600080fd5b5061061b60048036038101906106169190613c0f565b611368565b60405161062891906139ca565b60405180910390f35b34801561063d57600080fd5b50610646611420565b005b34801561065457600080fd5b5061066f600480360381019061066a9190613c0f565b6114a8565b60405161067c91906139ca565b60405180910390f35b34801561069157600080fd5b506106ac60048036038101906106a79190613a64565b6114c0565b005b3480156106ba57600080fd5b506106d560048036038101906106d09190613c0f565b611559565b6040516106e29190613cfa565b60405180910390f35b3480156106f757600080fd5b50610700611607565b60405161070d9190613934565b60405180910390f35b34801561072257600080fd5b5061072b611631565b60405161073891906139ca565b60405180910390f35b34801561074d57600080fd5b50610768600480360381019061076391906138c6565b611636565b005b34801561077657600080fd5b5061077f6116bc565b60405161078c9190613934565b60405180910390f35b3480156107a157600080fd5b506107aa6116e2565b6040516107b7919061386e565b60405180910390f35b3480156107cc57600080fd5b506107d5611774565b6040516107e29190613934565b60405180910390f35b3480156107f757600080fd5b50610812600480360381019061080d91906138c6565b61179a565b005b34801561082057600080fd5b506108296118b8565b60405161083691906139ca565b60405180910390f35b34801561084b57600080fd5b5061086660048036038101906108619190613d1c565b6118be565b005b34801561087457600080fd5b5061087d611a3f565b60405161088a91906139ca565b60405180910390f35b34801561089f57600080fd5b506108ba60048036038101906108b59190613dfd565b611a45565b005b3480156108c857600080fd5b506108e360048036038101906108de9190613f48565b611aa7565b005b3480156108f157600080fd5b5061090c60048036038101906109079190613a64565b611c3a565b005b610928600480360381019061092391906138c6565b611cd3565b005b34801561093657600080fd5b50610951600480360381019061094c91906138c6565b611e55565b60405161095e919061386e565b60405180910390f35b34801561097357600080fd5b5061097c611efc565b604051610989919061386e565b60405180910390f35b34801561099e57600080fd5b506109b960048036038101906109b49190613f91565b611f8a565b6040516109c691906137ba565b60405180910390f35b3480156109db57600080fd5b506109f660048036038101906109f19190614094565b61201e565b005b348015610a0457600080fd5b50610a1f6004803603810190610a1a9190613c0f565b612136565b005b610a3b6004803603810190610a3691906138c6565b61222e565b005b610a576004803603810190610a5291906138c6565b6123b0565b005b348015610a6557600080fd5b50610a6e612585565b604051610a7b91906139ca565b60405180910390f35b60007f780e9d63000000000000000000000000000000000000000000000000000000007bffffffffffffffffffffffffffffffffffffffffffffffffffffffff1916827bffffffffffffffffffffffffffffffffffffffffffffffffffffffff19161480610af75750610af68261258b565b5b9050919050565b600a60159054906101000a900460ff1681565b606060008054610b209061413b565b80601f0160208091040260200160405190810160405280929190818152602001828054610b4c9061413b565b8015610b995780601f10610b6e57610100808354040283529160200191610b99565b820191906000526020600020905b815481529060010190602001808311610b7c57829003601f168201915b5050505050905090565b6000610bae8261266d565b610bed576040517f08c379a0000000000000000000000000000000000000000000000000000000008152600401610be4906141df565b60405180910390fd5b6004600083815260200190815260200160002060009054906101000a900473ffffffffffffffffffffffffffffffffffffffff169050919050565b6000610c338261129d565b90508073ffffffffffffffffffffffffffffffffffffffff168373ffffffffffffffffffffffffffffffffffffffff161415610ca4576040517f08c379a0000000000000000000000000000000000000000000000000000000008152600401610c9b90614271565b60405180910390fd5b8073ffffffffffffffffffffffffffffffffffffffff16610cc36126d9565b73ffffffffffffffffffffffffffffffffffffffff161480610cf25750610cf181610cec6126d9565b611f8a565b5b610d31576040517f08c379a0000000000000000000000000000000000000000000000000000000008152600401610d2890614303565b60405180910390fd5b610d3b83836126e1565b505050565b600f60009054906101000a900473ffffffffffffffffffffffffffffffffffffffff1681565b6000600880549050905090565b610d84610d7e6126d9565b8261279a565b610dc3576040517f08c379a0000000000000000000000000000000000000000000000000000000008152600401610dba90614395565b60405180910390fd5b610dce838383612878565b505050565b6000610dde83611368565b8210610e1f576040517f08c379a0000000000000000000000000000000000000000000000000000000008152600401610e1690614427565b60405180910390fd5b600660008473ffffffffffffffffffffffffffffffffffffffff1673ffffffffffffffffffffffffffffffffffffffff168152602001908152602001600020600083815260200190815260200160002054905092915050565b61271081565b610e866126d9565b73ffffffffffffffffffffffffffffffffffffffff16610ea4611607565b73ffffffffffffffffffffffffffffffffffffffff1614610efa576040517f08c379a0000000000000000000000000000000000000000000000000000000008152600401610ef190614493565b60405180910390fd5b80600a60166101000a81548160ff02191690831515021790555050565b610f3283838360405180602001604052806000815250611a45565b505050565b6000610f41610d66565b90506000601260003373ffffffffffffffffffffffffffffffffffffffff1673ffffffffffffffffffffffffffffffffffffffff168152602001908152602001600020549050600a60159054906101000a900460ff16610fd6576040517f08c379a0000000000000000000000000000000000000000000000000000000008152600401610fcd906144ff565b60405180910390fd5b60008111611019576040517f08c379a000000000000000000000000000000000000000000000000000000000815260040161101090614591565b60405180910390fd5b8083111561105c576040517f08c379a0000000000000000000000000000000000000000000000000000000008152600401611053906145fd565b60405180910390fd5b612710838361106b919061464c565b11156110ac576040517f08c379a00000000000000000000000000000000000000000000000000000000081526004016110a3906146ee565b60405180910390fd5b82600d546110ba919061470e565b34146110fb576040517f08c379a00000000000000000000000000000000000000000000000000000000081526004016110f2906147b4565b60405180910390fd5b828161110791906147d4565b601260003373ffffffffffffffffffffffffffffffffffffffff1673ffffffffffffffffffffffffffffffffffffffff1681526020019081526020016000208190555060005b8381101561117d5761116a338285611165919061464c565b612ad4565b808061117590614808565b91505061114d565b50505050565b600061118d610d66565b82106111ce576040517f08c379a00000000000000000000000000000000000000000000000000000000081526004016111c5906148c3565b60405180910390fd5b600882815481106111e2576111e16148e3565b5b90600052602060002001549050919050565b600a60169054906101000a900460ff1681565b61120f6126d9565b73ffffffffffffffffffffffffffffffffffffffff1661122d611607565b73ffffffffffffffffffffffffffffffffffffffff1614611283576040517f08c379a000000000000000000000000000000000000000000000000000000000815260040161127a90614493565b60405180910390fd5b80600e9080519060200190611299929190613663565b5050565b6000806002600084815260200190815260200160002060009054906101000a900473ffffffffffffffffffffffffffffffffffffffff169050600073ffffffffffffffffffffffffffffffffffffffff168173ffffffffffffffffffffffffffffffffffffffff161415611346576040517f08c379a000000000000000000000000000000000000000000000000000000000815260040161133d90614984565b60405180910390fd5b80915050919050565b600a60149054906101000a900460ff1681565b6101f481565b60008073ffffffffffffffffffffffffffffffffffffffff168273ffffffffffffffffffffffffffffffffffffffff1614156113d9576040517f08c379a00000000000000000000000000000000000000000000000000000000081526004016113d090614a16565b60405180910390fd5b600360008373ffffffffffffffffffffffffffffffffffffffff1673ffffffffffffffffffffffffffffffffffffffff168152602001908152602001600020549050919050565b6114286126d9565b73ffffffffffffffffffffffffffffffffffffffff16611446611607565b73ffffffffffffffffffffffffffffffffffffffff161461149c576040517f08c379a000000000000000000000000000000000000000000000000000000000815260040161149390614493565b60405180910390fd5b6114a66000612af2565b565b60126020528060005260406000206000915090505481565b6114c86126d9565b73ffffffffffffffffffffffffffffffffffffffff166114e6611607565b73ffffffffffffffffffffffffffffffffffffffff161461153c576040517f08c379a000000000000000000000000000000000000000000000000000000000815260040161153390614493565b60405180910390fd5b80600a60146101000a81548160ff02191690831515021790555050565b6060600061156683611368565b905060008167ffffffffffffffff81111561158457611583613a9b565b5b6040519080825280602002602001820160405280156115b25781602001602082028036833780820191505090505b50905060005b828110156115fc576115ca8582610dd3565b8282815181106115dd576115dc6148e3565b5b60200260200101818152505080806115f490614808565b9150506115b8565b508092505050919050565b6000600a60009054906101000a900473ffffffffffffffffffffffffffffffffffffffff16905090565b601481565b61163e6126d9565b73ffffffffffffffffffffffffffffffffffffffff1661165c611607565b73ffffffffffffffffffffffffffffffffffffffff16146116b2576040517f08c379a00000000000000000000000000000000000000000000000000000000081526004016116a990614493565b60405180910390fd5b80600d8190555050565b601160009054906101000a900473ffffffffffffffffffffffffffffffffffffffff1681565b6060600180546116f19061413b565b80601f016020809104026020016040519081016040528092919081815260200182805461171d9061413b565b801561176a5780601f1061173f5761010080835404028352916020019161176a565b820191906000526020600020905b81548152906001019060200180831161174d57829003601f168201915b5050505050905090565b601060009054906101000a900473ffffffffffffffffffffffffffffffffffffffff1681565b6117a26126d9565b73ffffffffffffffffffffffffffffffffffffffff166117c0611607565b73ffffffffffffffffffffffffffffffffffffffff1614611816576040517f08c379a000000000000000000000000000000000000000000000000000000000815260040161180d90614493565b60405180910390fd5b600b5481111561185b576040517f08c379a000000000000000000000000000000000000000000000000000000000815260040161185290614aa8565b60405180910390fd5b80600b600082825461186d91906147d4565b92505081905550600061187e610d66565b905060005b828110156118b3576118a033828461189b919061464c565b612ad4565b80806118ab90614808565b915050611883565b505050565b600d5481565b6118c66126d9565b73ffffffffffffffffffffffffffffffffffffffff168273ffffffffffffffffffffffffffffffffffffffff161415611934576040517f08c379a000000000000000000000000000000000000000000000000000000000815260040161192b90614b14565b60405180910390fd5b80600560006119416126d9565b73ffffffffffffffffffffffffffffffffffffffff1673ffffffffffffffffffffffffffffffffffffffff16815260200190815260200160002060008473ffffffffffffffffffffffffffffffffffffffff1673ffffffffffffffffffffffffffffffffffffffff16815260200190815260200160002060006101000a81548160ff0219169083151502179055508173ffffffffffffffffffffffffffffffffffffffff166119ee6126d9565b73ffffffffffffffffffffffffffffffffffffffff167f17307eab39ab6107e8899845ad3d59bd9653f200f220920489ca2b5937696c3183604051611a3391906137ba565b60405180910390a35050565b600c5481565b611a56611a506126d9565b8361279a565b611a95576040517f08c379a0000000000000000000000000000000000000000000000000000000008152600401611a8c90614395565b60405180910390fd5b611aa184848484612bb8565b50505050565b611aaf6126d9565b73ffffffffffffffffffffffffffffffffffffffff16611acd611607565b73ffffffffffffffffffffffffffffffffffffffff1614611b23576040517f08c379a0000000000000000000000000000000000000000000000000000000008152600401611b1a90614493565b60405180910390fd5b80600081518110611b3757611b366148e3565b5b6020026020010151600f60006101000a81548173ffffffffffffffffffffffffffffffffffffffff021916908373ffffffffffffffffffffffffffffffffffffffff16021790555080600181518110611b9357611b926148e3565b5b6020026020010151601060006101000a81548173ffffffffffffffffffffffffffffffffffffffff021916908373ffffffffffffffffffffffffffffffffffffffff16021790555080600281518110611bef57611bee6148e3565b5b6020026020010151601160006101000a81548173ffffffffffffffffffffffffffffffffffffffff021916908373ffffffffffffffffffffffffffffffffffffffff16021790555050565b611c426126d9565b73ffffffffffffffffffffffffffffffffffffffff16611c60611607565b73ffffffffffffffffffffffffffffffffffffffff1614611cb6576040517f08c379a0000000000000000000000000000000000000000000000000000000008152600401611cad90614493565b60405180910390fd5b80600a60156101000a81548160ff02191690831515021790555050565b6000611cdd610d66565b9050600a60149054906101000a900460ff16611d2e576040517f08c379a0000000000000000000000000000000000000000000000000000000008152600401611d2590614b80565b60405180910390fd5b600082118015611d3f575060148211155b611d7e576040517f08c379a0000000000000000000000000000000000000000000000000000000008152600401611d7590614c12565b60405180910390fd5b6127108282611d8d919061464c565b1115611dce576040517f08c379a0000000000000000000000000000000000000000000000000000000008152600401611dc5906146ee565b60405180910390fd5b81600d54611ddc919061470e565b3414611e1d576040517f08c379a0000000000000000000000000000000000000000000000000000000008152600401611e14906147b4565b60405180910390fd5b60005b82811015611e5057611e3d338284611e38919061464c565b612ad4565b8080611e4890614808565b915050611e20565b505050565b6060611e608261266d565b611e9f576040517f08c379a0000000000000000000000000000000000000000000000000000000008152600401611e9690614ca4565b60405180910390fd5b6000611ea9612c14565b90506000815111611ec95760405180602001604052806000815250611ef4565b80611ed384612ca6565b604051602001611ee4929190614d00565b6040516020818303038152906040525b915050919050565b600e8054611f099061413b565b80601f0160208091040260200160405190810160405280929190818152602001828054611f359061413b565b8015611f825780601f10611f5757610100808354040283529160200191611f82565b820191906000526020600020905b815481529060010190602001808311611f6557829003601f168201915b505050505081565b6000600560008473ffffffffffffffffffffffffffffffffffffffff1673ffffffffffffffffffffffffffffffffffffffff16815260200190815260200160002060008373ffffffffffffffffffffffffffffffffffffffff1673ffffffffffffffffffffffffffffffffffffffff16815260200190815260200160002060009054906101000a900460ff16905092915050565b6120266126d9565b73ffffffffffffffffffffffffffffffffffffffff16612044611607565b73ffffffffffffffffffffffffffffffffffffffff161461209a576040517f08c379a000000000000000000000000000000000000000000000000000000000815260040161209190614493565b60405180910390fd5b60005b8251811015612131578181815181106120b9576120b86148e3565b5b6020026020010151601260008584815181106120d8576120d76148e3565b5b602002602001015173ffffffffffffffffffffffffffffffffffffffff1673ffffffffffffffffffffffffffffffffffffffff16815260200190815260200160002081905550808061212990614808565b91505061209d565b505050565b61213e6126d9565b73ffffffffffffffffffffffffffffffffffffffff1661215c611607565b73ffffffffffffffffffffffffffffffffffffffff16146121b2576040517f08c379a00000000000000000000000000000000000000000000000000000000081526004016121a990614493565b60405180910390fd5b600073ffffffffffffffffffffffffffffffffffffffff168173ffffffffffffffffffffffffffffffffffffffff161415612222576040517f08c379a000000000000000000000000000000000000000000000000000000000815260040161221990614d96565b60405180910390fd5b61222b81612af2565b50565b6000612238610d66565b9050600a60169054906101000a900460ff16612289576040517f08c379a000000000000000000000000000000000000000000000000000000000815260040161228090614b80565b60405180910390fd5b60008211801561229a575060148211155b6122d9576040517f08c379a00000000000000000000000000000000000000000000000000000000081526004016122d090614e28565b60405180910390fd5b6101f482826122e8919061464c565b1115612329576040517f08c379a0000000000000000000000000000000000000000000000000000000008152600401612320906146ee565b60405180910390fd5b81600d54612337919061470e565b3414612378576040517f08c379a000000000000000000000000000000000000000000000000000000000815260040161236f906147b4565b60405180910390fd5b60005b828110156123ab57612398338284612393919061464c565b612ad4565b80806123a390614808565b91505061237b565b505050565b6123b86126d9565b73ffffffffffffffffffffffffffffffffffffffff166123d6611607565b73ffffffffffffffffffffffffffffffffffffffff161461242c576040517f08c379a000000000000000000000000000000000000000000000000000000000815260040161242390614493565b60405180910390fd5b600060648261243b9190614e77565b9050600f60009054906101000a900473ffffffffffffffffffffffffffffffffffffffff1673ffffffffffffffffffffffffffffffffffffffff166108fc602883612486919061470e565b9081150290604051600060405180830381858888f193505050506124a957600080fd5b601060009054906101000a900473ffffffffffffffffffffffffffffffffffffffff1673ffffffffffffffffffffffffffffffffffffffff166108fc601e836124f2919061470e565b9081150290604051600060405180830381858888f1935050505061251557600080fd5b601160009054906101000a900473ffffffffffffffffffffffffffffffffffffffff1673ffffffffffffffffffffffffffffffffffffffff166108fc601e8361255e919061470e565b9081150290604051600060405180830381858888f1935050505061258157600080fd5b5050565b600b5481565b60007f80ac58cd000000000000000000000000000000000000000000000000000000007bffffffffffffffffffffffffffffffffffffffffffffffffffffffff1916827bffffffffffffffffffffffffffffffffffffffffffffffffffffffff1916148061265657507f5b5e139f000000000000000000000000000000000000000000000000000000007bffffffffffffffffffffffffffffffffffffffffffffffffffffffff1916827bffffffffffffffffffffffffffffffffffffffffffffffffffffffff1916145b80612666575061266582612e07565b5b9050919050565b60008073ffffffffffffffffffffffffffffffffffffffff166002600084815260200190815260200160002060009054906101000a900473ffffffffffffffffffffffffffffffffffffffff1673ffffffffffffffffffffffffffffffffffffffff1614159050919050565b600033905090565b816004600083815260200190815260200160002060006101000a81548173ffffffffffffffffffffffffffffffffffffffff021916908373ffffffffffffffffffffffffffffffffffffffff160217905550808273ffffffffffffffffffffffffffffffffffffffff166127548361129d565b73ffffffffffffffffffffffffffffffffffffffff167f8c5be1e5ebec7d5bd14f71427d1e84f3dd0314c0f7b2291e5b200ac8c7c3b92560405160405180910390a45050565b60006127a58261266d565b6127e4576040517f08c379a00000000000000000000000000000000000000000000000000000000081526004016127db90614f1a565b60405180910390fd5b60006127ef8361129d565b90508073ffffffffffffffffffffffffffffffffffffffff168473ffffffffffffffffffffffffffffffffffffffff16148061285e57508373ffffffffffffffffffffffffffffffffffffffff1661284684610ba3565b73ffffffffffffffffffffffffffffffffffffffff16145b8061286f575061286e8185611f8a565b5b91505092915050565b8273ffffffffffffffffffffffffffffffffffffffff166128988261129d565b73ffffffffffffffffffffffffffffffffffffffff16146128ee576040517f08c379a00000000000000000000000000000000000000000000000000000000081526004016128e590614fac565b60405180910390fd5b600073ffffffffffffffffffffffffffffffffffffffff168273ffffffffffffffffffffffffffffffffffffffff16141561295e576040517f08c379a00000000000000000000000000000000000000000000000000000000081526004016129559061503e565b60405180910390fd5b612969838383612e71565b6129746000826126e1565b6001600360008573ffffffffffffffffffffffffffffffffffffffff1673ffffffffffffffffffffffffffffffffffffffff16815260200190815260200160002060008282546129c491906147d4565b925050819055506001600360008473ffffffffffffffffffffffffffffffffffffffff1673ffffffffffffffffffffffffffffffffffffffff1681526020019081526020016000206000828254612a1b919061464c565b92505081905550816002600083815260200190815260200160002060006101000a81548173ffffffffffffffffffffffffffffffffffffffff021916908373ffffffffffffffffffffffffffffffffffffffff160217905550808273ffffffffffffffffffffffffffffffffffffffff168473ffffffffffffffffffffffffffffffffffffffff167fddf252ad1be2c89b69c2b068fc378daa952ba7f163c4a11628f55a4df523b3ef60405160405180910390a4505050565b612aee828260405180602001604052806000815250612f85565b5050565b6000600a60009054906101000a900473ffffffffffffffffffffffffffffffffffffffff16905081600a60006101000a81548173ffffffffffffffffffffffffffffffffffffffff021916908373ffffffffffffffffffffffffffffffffffffffff1602179055508173ffffffffffffffffffffffffffffffffffffffff168173ffffffffffffffffffffffffffffffffffffffff167f8be0079c531659141344cd1fd0a4f28419497f9722a3daafe3b4186f6b6457e060405160405180910390a35050565b612bc3848484612878565b612bcf84848484612fe0565b612c0e576040517f08c379a0000000000000000000000000000000000000000000000000000000008152600401612c05906150d0565b60405180910390fd5b50505050565b6060600e8054612c239061413b565b80601f0160208091040260200160405190810160405280929190818152602001828054612c4f9061413b565b8015612c9c5780601f10612c7157610100808354040283529160200191612c9c565b820191906000526020600020905b815481529060010190602001808311612c7f57829003601f168201915b5050505050905090565b60606000821415612cee576040518060400160405280600181526020017f30000000000000000000000000000000000000000000000000000000000000008152509050612e02565b600082905060005b60008214612d20578080612d0990614808565b915050600a82612d199190614e77565b9150612cf6565b60008167ffffffffffffffff811115612d3c57612d3b613a9b565b5b6040519080825280601f01601f191660200182016040528015612d6e5781602001600182028036833780820191505090505b5090505b60008514612dfb57600182612d8791906147d4565b9150600a85612d9691906150f0565b6030612da2919061464c565b60f81b818381518110612db857612db76148e3565b5b60200101907effffffffffffffffffffffffffffffffffffffffffffffffffffffffffffff1916908160001a905350600a85612df49190614e77565b9450612d72565b8093505050505b919050565b60007f01ffc9a7000000000000000000000000000000000000000000000000000000007bffffffffffffffffffffffffffffffffffffffffffffffffffffffff1916827bffffffffffffffffffffffffffffffffffffffffffffffffffffffff1916149050919050565b612e7c838383613177565b600073ffffffffffffffffffffffffffffffffffffffff168373ffffffffffffffffffffffffffffffffffffffff161415612ebf57612eba8161317c565b612efe565b8173ffffffffffffffffffffffffffffffffffffffff168373ffffffffffffffffffffffffffffffffffffffff1614612efd57612efc83826131c5565b5b5b600073ffffffffffffffffffffffffffffffffffffffff168273ffffffffffffffffffffffffffffffffffffffff161415612f4157612f3c81613332565b612f80565b8273ffffffffffffffffffffffffffffffffffffffff168273ffffffffffffffffffffffffffffffffffffffff1614612f7f57612f7e8282613403565b5b5b505050565b612f8f8383613482565b612f9c6000848484612fe0565b612fdb576040517f08c379a0000000000000000000000000000000000000000000000000000000008152600401612fd2906150d0565b60405180910390fd5b505050565b60006130018473ffffffffffffffffffffffffffffffffffffffff16613650565b1561316a578373ffffffffffffffffffffffffffffffffffffffff1663150b7a0261302a6126d9565b8786866040518563ffffffff1660e01b815260040161304c9493929190615176565b602060405180830381600087803b15801561306657600080fd5b505af192505050801561309757506040513d601f19601f8201168201806040525081019061309491906151d7565b60015b61311a573d80600081146130c7576040519150601f19603f3d011682016040523d82523d6000602084013e6130cc565b606091505b50600081511415613112576040517f08c379a0000000000000000000000000000000000000000000000000000000008152600401613109906150d0565b60405180910390fd5b805181602001fd5b63150b7a0260e01b7bffffffffffffffffffffffffffffffffffffffffffffffffffffffff1916817bffffffffffffffffffffffffffffffffffffffffffffffffffffffff19161491505061316f565b600190505b949350505050565b505050565b6008805490506009600083815260200190815260200160002081905550600881908060018154018082558091505060019003906000526020600020016000909190919091505550565b600060016131d284611368565b6131dc91906147d4565b90506000600760008481526020019081526020016000205490508181146132c1576000600660008673ffffffffffffffffffffffffffffffffffffffff1673ffffffffffffffffffffffffffffffffffffffff168152602001908152602001600020600084815260200190815260200160002054905080600660008773ffffffffffffffffffffffffffffffffffffffff1673ffffffffffffffffffffffffffffffffffffffff168152602001908152602001600020600084815260200190815260200160002081905550816007600083815260200190815260200160002081905550505b6007600084815260200190815260200160002060009055600660008573ffffffffffffffffffffffffffffffffffffffff1673ffffffffffffffffffffffffffffffffffffffff16815260200190815260200160002060008381526020019081526020016000206000905550505050565b6000600160088054905061334691906147d4565b9050600060096000848152602001908152602001600020549050600060088381548110613376576133756148e3565b5b906000526020600020015490508060088381548110613398576133976148e3565b5b9060005260206000200181905550816009600083815260200190815260200160002081905550600960008581526020019081526020016000206000905560088054806133e7576133e6615204565b5b6001900381819060005260206000200160009055905550505050565b600061340e83611368565b905081600660008573ffffffffffffffffffffffffffffffffffffffff1673ffffffffffffffffffffffffffffffffffffffff168152602001908152602001600020600083815260200190815260200160002081905550806007600084815260200190815260200160002081905550505050565b600073ffffffffffffffffffffffffffffffffffffffff168273ffffffffffffffffffffffffffffffffffffffff1614156134f2576040517f08c379a00000000000000000000000000000000000000000000000000000000081526004016134e99061527f565b60405180910390fd5b6134fb8161266d565b1561353b576040517f08c379a0000000000000000000000000000000000000000000000000000000008152600401613532906152eb565b60405180910390fd5b61354760008383612e71565b6001600360008473ffffffffffffffffffffffffffffffffffffffff1673ffffffffffffffffffffffffffffffffffffffff1681526020019081526020016000206000828254613597919061464c565b92505081905550816002600083815260200190815260200160002060006101000a81548173ffffffffffffffffffffffffffffffffffffffff021916908373ffffffffffffffffffffffffffffffffffffffff160217905550808273ffffffffffffffffffffffffffffffffffffffff16600073ffffffffffffffffffffffffffffffffffffffff167fddf252ad1be2c89b69c2b068fc378daa952ba7f163c4a11628f55a4df523b3ef60405160405180910390a45050565b600080823b905060008111915050919050565b82805461366f9061413b565b90600052602060002090601f01602090048101928261369157600085556136d8565b82601f106136aa57805160ff19168380011785556136d8565b828001600101855582156136d8579182015b828111156136d75782518255916020019190600101906136bc565b5b5090506136e591906136e9565b5090565b5b808211156137025760008160009055506001016136ea565b5090565b6000604051905090565b600080fd5b600080fd5b60007fffffffff0000000000000000000000000000000000000000000000000000000082169050919050565b61374f8161371a565b811461375a57600080fd5b50565b60008135905061376c81613746565b92915050565b60006020828403121561378857613787613710565b5b60006137968482850161375d565b91505092915050565b60008115159050919050565b6137b48161379f565b82525050565b60006020820190506137cf60008301846137ab565b92915050565b600081519050919050565b600082825260208201905092915050565b60005b8381101561380f5780820151818401526020810190506137f4565b8381111561381e576000848401525b50505050565b6000601f19601f8301169050919050565b6000613840826137d5565b61384a81856137e0565b935061385a8185602086016137f1565b61386381613824565b840191505092915050565b600060208201905081810360008301526138888184613835565b905092915050565b6000819050919050565b6138a381613890565b81146138ae57600080fd5b50565b6000813590506138c08161389a565b92915050565b6000602082840312156138dc576138db613710565b5b60006138ea848285016138b1565b91505092915050565b600073ffffffffffffffffffffffffffffffffffffffff82169050919050565b600061391e826138f3565b9050919050565b61392e81613913565b82525050565b60006020820190506139496000830184613925565b92915050565b61395881613913565b811461396357600080fd5b50565b6000813590506139758161394f565b92915050565b6000806040838503121561399257613991613710565b5b60006139a085828601613966565b92505060206139b1858286016138b1565b9150509250929050565b6139c481613890565b82525050565b60006020820190506139df60008301846139bb565b92915050565b6000806000606084860312156139fe576139fd613710565b5b6000613a0c86828701613966565b9350506020613a1d86828701613966565b9250506040613a2e868287016138b1565b9150509250925092565b613a418161379f565b8114613a4c57600080fd5b50565b600081359050613a5e81613a38565b92915050565b600060208284031215613a7a57613a79613710565b5b6000613a8884828501613a4f565b91505092915050565b600080fd5b600080fd5b7f4e487b7100000000000000000000000000000000000000000000000000000000600052604160045260246000fd5b613ad382613824565b810181811067ffffffffffffffff82111715613af257613af1613a9b565b5b80604052505050565b6000613b05613706565b9050613b118282613aca565b919050565b600067ffffffffffffffff821115613b3157613b30613a9b565b5b613b3a82613824565b9050602081019050919050565b82818337600083830152505050565b6000613b69613b6484613b16565b613afb565b905082815260208101848484011115613b8557613b84613a96565b5b613b90848285613b47565b509392505050565b600082601f830112613bad57613bac613a91565b5b8135613bbd848260208601613b56565b91505092915050565b600060208284031215613bdc57613bdb613710565b5b600082013567ffffffffffffffff811115613bfa57613bf9613715565b5b613c0684828501613b98565b91505092915050565b600060208284031215613c2557613c24613710565b5b6000613c3384828501613966565b91505092915050565b600081519050919050565b600082825260208201905092915050565b6000819050602082019050919050565b613c7181613890565b82525050565b6000613c838383613c68565b60208301905092915050565b6000602082019050919050565b6000613ca782613c3c565b613cb18185613c47565b9350613cbc83613c58565b8060005b83811015613ced578151613cd48882613c77565b9750613cdf83613c8f565b925050600181019050613cc0565b5085935050505092915050565b60006020820190508181036000830152613d148184613c9c565b905092915050565b60008060408385031215613d3357613d32613710565b5b6000613d4185828601613966565b9250506020613d5285828601613a4f565b9150509250929050565b600067ffffffffffffffff821115613d7757613d76613a9b565b5b613d8082613824565b9050602081019050919050565b6000613da0613d9b84613d5c565b613afb565b905082815260208101848484011115613dbc57613dbb613a96565b5b613dc7848285613b47565b509392505050565b600082601f830112613de457613de3613a91565b5b8135613df4848260208601613d8d565b91505092915050565b60008060008060808587031215613e1757613e16613710565b5b6000613e2587828801613966565b9450506020613e3687828801613966565b9350506040613e47878288016138b1565b925050606085013567ffffffffffffffff811115613e6857613e67613715565b5b613e7487828801613dcf565b91505092959194509250565b600067ffffffffffffffff821115613e9b57613e9a613a9b565b5b602082029050602081019050919050565b600080fd5b6000613ec4613ebf84613e80565b613afb565b90508083825260208201905060208402830185811115613ee757613ee6613eac565b5b835b81811015613f105780613efc8882613966565b845260208401935050602081019050613ee9565b5050509392505050565b600082601f830112613f2f57613f2e613a91565b5b8135613f3f848260208601613eb1565b91505092915050565b600060208284031215613f5e57613f5d613710565b5b600082013567ffffffffffffffff811115613f7c57613f7b613715565b5b613f8884828501613f1a565b91505092915050565b60008060408385031215613fa857613fa7613710565b5b6000613fb685828601613966565b9250506020613fc785828601613966565b9150509250929050565b600067ffffffffffffffff821115613fec57613feb613a9b565b5b602082029050602081019050919050565b600061401061400b84613fd1565b613afb565b9050808382526020820190506020840283018581111561403357614032613eac565b5b835b8181101561405c578061404888826138b1565b845260208401935050602081019050614035565b5050509392505050565b600082601f83011261407b5761407a613a91565b5b813561408b848260208601613ffd565b91505092915050565b600080604083850312156140ab576140aa613710565b5b600083013567ffffffffffffffff8111156140c9576140c8613715565b5b6140d585828601613f1a565b925050602083013567ffffffffffffffff8111156140f6576140f5613715565b5b61410285828601614066565b9150509250929050565b7f4e487b7100000000000000000000000000000000000000000000000000000000600052602260045260246000fd5b6000600282049050600182168061415357607f821691505b602082108114156141675761416661410c565b5b50919050565b7f4552433732313a20617070726f76656420717565727920666f72206e6f6e657860008201527f697374656e7420746f6b656e0000000000000000000000000000000000000000602082015250565b60006141c9602c836137e0565b91506141d48261416d565b604082019050919050565b600060208201905081810360008301526141f8816141bc565b9050919050565b7f4552433732313a20617070726f76616c20746f2063757272656e74206f776e6560008201527f7200000000000000000000000000000000000000000000000000000000000000602082015250565b600061425b6021836137e0565b9150614266826141ff565b604082019050919050565b6000602082019050818103600083015261428a8161424e565b9050919050565b7f4552433732313a20617070726f76652063616c6c6572206973206e6f74206f7760008201527f6e6572206e6f7220617070726f76656420666f7220616c6c0000000000000000602082015250565b60006142ed6038836137e0565b91506142f882614291565b604082019050919050565b6000602082019050818103600083015261431c816142e0565b9050919050565b7f4552433732313a207472616e736665722063616c6c6572206973206e6f74206f60008201527f776e6572206e6f7220617070726f766564000000000000000000000000000000602082015250565b600061437f6031836137e0565b915061438a82614323565b604082019050919050565b600060208201905081810360008301526143ae81614372565b9050919050565b7f455243373231456e756d657261626c653a206f776e657220696e646578206f7560008201527f74206f6620626f756e6473000000000000000000000000000000000000000000602082015250565b6000614411602b836137e0565b915061441c826143b5565b604082019050919050565b6000602082019050818103600083015261444081614404565b9050919050565b7f4f776e61626c653a2063616c6c6572206973206e6f7420746865206f776e6572600082015250565b600061447d6020836137e0565b915061448882614447565b602082019050919050565b600060208201905081810360008301526144ac81614470565b9050919050565b7f57686974656c6973742069736e27742061637469766500000000000000000000600082015250565b60006144e96016836137e0565b91506144f4826144b3565b602082019050919050565b60006020820190508181036000830152614518816144dc565b9050919050565b7f4e6f20746f6b656e7320726573657276656420666f7220796f7572206164647260008201527f6573730000000000000000000000000000000000000000000000000000000000602082015250565b600061457b6023836137e0565b91506145868261451f565b604082019050919050565b600060208201905081810360008301526145aa8161456e565b9050919050565b7f43616e2774206d696e74206d6f7265207468616e207265736572766564000000600082015250565b60006145e7601d836137e0565b91506145f2826145b1565b602082019050919050565b60006020820190508181036000830152614616816145da565b9050919050565b7f4e487b7100000000000000000000000000000000000000000000000000000000600052601160045260246000fd5b600061465782613890565b915061466283613890565b9250827fffffffffffffffffffffffffffffffffffffffffffffffffffffffffffffffff038211156146975761469661461d565b5b828201905092915050565b7f43616e2774206d696e74206d6f7265207468616e206d617820737570706c7900600082015250565b60006146d8601f836137e0565b91506146e3826146a2565b602082019050919050565b60006020820190508181036000830152614707816146cb565b9050919050565b600061471982613890565b915061472483613890565b9250817fffffffffffffffffffffffffffffffffffffffffffffffffffffffffffffffff048311821515161561475d5761475c61461d565b5b828202905092915050565b7f57726f6e6720616d6f756e74206f66204554482073656e740000000000000000600082015250565b600061479e6018836137e0565b91506147a982614768565b602082019050919050565b600060208201905081810360008301526147cd81614791565b9050919050565b60006147df82613890565b91506147ea83613890565b9250828210156147fd576147fc61461d565b5b828203905092915050565b600061481382613890565b91507fffffffffffffffffffffffffffffffffffffffffffffffffffffffffffffffff8214156148465761484561461d565b5b600182019050919050565b7f455243373231456e756d657261626c653a20676c6f62616c20696e646578206f60008201527f7574206f6620626f756e64730000000000000000000000000000000000000000602082015250565b60006148ad602c836137e0565b91506148b882614851565b604082019050919050565b600060208201905081810360008301526148dc816148a0565b9050919050565b7f4e487b7100000000000000000000000000000000000000000000000000000000600052603260045260246000fd5b7f4552433732313a206f776e657220717565727920666f72206e6f6e657869737460008201527f656e7420746f6b656e0000000000000000000000000000000000000000000000602082015250565b600061496e6029836137e0565b915061497982614912565b604082019050919050565b6000602082019050818103600083015261499d81614961565b9050919050565b7f4552433732313a2062616c616e636520717565727920666f7220746865207a6560008201527f726f206164647265737300000000000000000000000000000000000000000000602082015250565b6000614a00602a836137e0565b9150614a0b826149a4565b604082019050919050565b60006020820190508181036000830152614a2f816149f3565b9050919050565b7f43616e27742072657365727665206d6f7265207468616e2073657420616d6f7560008201527f6e74000000000000000000000000000000000000000000000000000000000000602082015250565b6000614a926022836137e0565b9150614a9d82614a36565b604082019050919050565b60006020820190508181036000830152614ac181614a85565b9050919050565b7f4552433732313a20617070726f766520746f2063616c6c657200000000000000600082015250565b6000614afe6019836137e0565b9150614b0982614ac8565b602082019050919050565b60006020820190508181036000830152614b2d81614af1565b9050919050565b7f53616c652069736e277420616374697665000000000000000000000000000000600082015250565b6000614b6a6011836137e0565b9150614b7582614b34565b602082019050919050565b60006020820190508181036000830152614b9981614b5d565b9050919050565b7f43616e206f6e6c79206d696e74206265747765656e203120616e64203130207460008201527f6f6b656e73206174206f6e636500000000000000000000000000000000000000602082015250565b6000614bfc602d836137e0565b9150614c0782614ba0565b604082019050919050565b60006020820190508181036000830152614c2b81614bef565b9050919050565b7f4552433732314d657461646174613a2055524920717565727920666f72206e6f60008201527f6e6578697374656e7420746f6b656e0000000000000000000000000000000000602082015250565b6000614c8e602f836137e0565b9150614c9982614c32565b604082019050919050565b60006020820190508181036000830152614cbd81614c81565b9050919050565b600081905092915050565b6000614cda826137d5565b614ce48185614cc4565b9350614cf48185602086016137f1565b80840191505092915050565b6000614d0c8285614ccf565b9150614d188284614ccf565b91508190509392505050565b7f4f776e61626c653a206e6577206f776e657220697320746865207a65726f206160008201527f6464726573730000000000000000000000000000000000000000000000000000602082015250565b6000614d806026836137e0565b9150614d8b82614d24565b604082019050919050565b60006020820190508181036000830152614daf81614d73565b9050919050565b7f43616e206f6e6c79206d696e74206265747765656e203120616e64203230207460008201527f6f6b656e73206174206f6e636500000000000000000000000000000000000000602082015250565b6000614e12602d836137e0565b9150614e1d82614db6565b604082019050919050565b60006020820190508181036000830152614e4181614e05565b9050919050565b7f4e487b7100000000000000000000000000000000000000000000000000000000600052601260045260246000fd5b6000614e8282613890565b9150614e8d83613890565b925082614e9d57614e9c614e48565b5b828204905092915050565b7f4552433732313a206f70657261746f7220717565727920666f72206e6f6e657860008201527f697374656e7420746f6b656e0000000000000000000000000000000000000000602082015250565b6000614f04602c836137e0565b9150614f0f82614ea8565b604082019050919050565b60006020820190508181036000830152614f3381614ef7565b9050919050565b7f4552433732313a207472616e73666572206f6620746f6b656e2074686174206960008201527f73206e6f74206f776e0000000000000000000000000000000000000000000000602082015250565b6000614f966029836137e0565b9150614fa182614f3a565b604082019050919050565b60006020820190508181036000830152614fc581614f89565b9050919050565b7f4552433732313a207472616e7366657220746f20746865207a65726f2061646460008201527f7265737300000000000000000000000000000000000000000000000000000000602082015250565b60006150286024836137e0565b915061503382614fcc565b604082019050919050565b600060208201905081810360008301526150578161501b565b9050919050565b7f4552433732313a207472616e7366657220746f206e6f6e20455243373231526560008201527f63656976657220696d706c656d656e7465720000000000000000000000000000602082015250565b60006150ba6032836137e0565b91506150c58261505e565b604082019050919050565b600060208201905081810360008301526150e9816150ad565b9050919050565b60006150fb82613890565b915061510683613890565b92508261511657615115614e48565b5b828206905092915050565b600081519050919050565b600082825260208201905092915050565b600061514882615121565b615152818561512c565b93506151628185602086016137f1565b61516b81613824565b840191505092915050565b600060808201905061518b6000830187613925565b6151986020830186613925565b6151a560408301856139bb565b81810360608301526151b7818461513d565b905095945050505050565b6000815190506151d181613746565b92915050565b6000602082840312156151ed576151ec613710565b5b60006151fb848285016151c2565b91505092915050565b7f4e487b7100000000000000000000000000000000000000000000000000000000600052603160045260246000fd5b7f4552433732313a206d696e7420746f20746865207a65726f2061646472657373600082015250565b60006152696020836137e0565b915061527482615233565b602082019050919050565b600060208201905081810360008301526152988161525c565b9050919050565b7f4552433732313a20746f6b656e20616c7265616479206d696e74656400000000600082015250565b60006152d5601c836137e0565b91506152e08261529f565b602082019050919050565b60006020820190508181036000830152615304816152c8565b905091905056fea2646970667358221220812e253422ed1dd43af1a8690dfc8a117956588a8ff79212eee5e58c97e963e264736f6c63430008090033",
  "immutableReferences": {},
  "source": "// SPDX-License-Identifier: MIT\npragma solidity 0.8.9;\n\nimport '@openzeppelin/contracts/token/ERC721/extensions/ERC721Enumerable.sol';\nimport '@openzeppelin/contracts/access/Ownable.sol';\n\ncontract FunkyCrocs is ERC721Enumerable, Ownable {  \n    using Address for address;\n    \n    // Starting and stopping sale, presale and whitelist\n    bool public saleActive = false;\n    bool public whitelistActive = false;\n    bool public presaleActive = false;\n\n    // Reserved for the team, customs, giveaways, collabs and so on.\n    uint256 public reserved = 150;\n\n    // Price of each token\n    uint256 public initial_price = 0.04 ether;\n    uint256 public price;\n\n    // Maximum limit of tokens that can ever exist\n    uint256 public constant MAX_SUPPLY = 10000;\n    uint256 public constant MAX_PRESALE_SUPPLY = 500;\n    uint256 public constant MAX_MINT_PER_TX = 20;\n\n    // The base link that leads to the image / video of the token\n    string public baseTokenURI = \"https://api.funkycrocs.io/\";\n\n    // Team addresses for withdrawals\n    address public a1;\n    address public a2;\n    address public a3;\n\n    // List of addresses that have a number of reserved tokens for whitelist\n    mapping (address => uint256) public whitelistReserved;\n\n    constructor () ERC721 (\"Funky Crocs\", \"FNK\") {\n        price = initial_price;\n    }\n\n    // Override so the openzeppelin tokenURI() method will use this method to create the full tokenURI instead\n    function _baseURI() internal view virtual override returns (string memory) {\n        return baseTokenURI;\n    }\n\n    // See which address owns which tokens\n    function tokensOfOwner(address addr) public view returns(uint256[] memory) {\n        uint256 tokenCount = balanceOf(addr);\n        uint256[] memory tokensId = new uint256[](tokenCount);\n        for(uint256 i; i < tokenCount; i++){\n            tokensId[i] = tokenOfOwnerByIndex(addr, i);\n        }\n        return tokensId;\n    }\n\n    // Exclusive whitelist minting\n    function mintWhitelist(uint256 _amount) public payable {\n        uint256 supply = totalSupply();\n        uint256 reservedAmt = whitelistReserved[msg.sender];\n        require( whitelistActive,                   \"Whitelist isn't active\" );\n        require( reservedAmt > 0,                   \"No tokens reserved for your address\" );\n        require( _amount <= reservedAmt,            \"Can't mint more than reserved\" );\n        require( supply + _amount <= MAX_SUPPLY,    \"Can't mint more than max supply\" );\n        require( msg.value == price * _amount,      \"Wrong amount of ETH sent\" );\n        whitelistReserved[msg.sender] = reservedAmt - _amount;\n        for(uint256 i; i < _amount; i++){\n            _safeMint( msg.sender, supply + i );\n        }\n    }\n\n    // Presale minting\n    function mintPresale(uint256 _amount) public payable {\n        uint256 supply = totalSupply();\n        require( presaleActive,                             \"Sale isn't active\" );\n        require( _amount > 0 && _amount <= MAX_MINT_PER_TX, \"Can only mint between 1 and 20 tokens at once\" );\n        require( supply + _amount <= MAX_PRESALE_SUPPLY,    \"Can't mint more than max supply\" );\n        require( msg.value == price * _amount,              \"Wrong amount of ETH sent\" );\n        for(uint256 i; i < _amount; i++){\n            _safeMint( msg.sender, supply + i );\n        }\n    }\n\n    // Standard mint function\n    function mintToken(uint256 _amount) public payable {\n        uint256 supply = totalSupply();\n        require( saleActive,                                \"Sale isn't active\" );\n        require( _amount > 0 && _amount <= MAX_MINT_PER_TX, \"Can only mint between 1 and 10 tokens at once\" );\n        require( supply + _amount <= MAX_SUPPLY,            \"Can't mint more than max supply\" );\n        require( msg.value == price * _amount,              \"Wrong amount of ETH sent\" );\n        for(uint256 i; i < _amount; i++){\n            _safeMint( msg.sender, supply + i );\n        }\n    }\n\n    // Admin minting function to reserve tokens for the team, collabs, customs and giveaways\n    function mintReserved(uint256 _amount) public onlyOwner {\n        // Limited to a publicly set amount\n        require( _amount <= reserved, \"Can't reserve more than set amount\" );\n        reserved -= _amount;\n        uint256 supply = totalSupply();\n        for(uint256 i; i < _amount; i++){\n            _safeMint( msg.sender, supply + i );\n        }\n    }\n    \n    // Edit reserved whitelist spots\n    function editWhitelistReserved(address[] memory _a, uint256[] memory _amount) public onlyOwner {\n        for(uint256 i; i < _a.length; i++){\n            whitelistReserved[_a[i]] = _amount[i];\n        }\n    }\n\n    // Start and stop whitelist\n    function setWhitelistActive(bool val) public onlyOwner {\n        whitelistActive = val;\n    }\n\n    // Start and stop presale\n    function setPresaleActive(bool val) public onlyOwner {\n        presaleActive = val;\n    }\n\n    // Start and stop sale\n    function setSaleActive(bool val) public onlyOwner {\n        saleActive = val;\n    }\n\n    // Set new baseURI\n    function setBaseURI(string memory baseURI) public onlyOwner {\n        baseTokenURI = baseURI;\n    }\n\n    // Set a different price in case ETH changes drastically\n    function setPrice(uint256 newPrice) public onlyOwner {\n        price = newPrice;\n    }\n\n    // Set team addresses\n    function setAddresses(address[] memory _a) public onlyOwner {\n        a1 = _a[0];\n        a2 = _a[1];\n        a3 = _a[2];\n    }\n\n    // Withdraw funds from contract for the team\n    function withdrawTeam(uint256 amount) public payable onlyOwner {\n        uint256 percent = amount / 100;\n        require(payable(a1).send(percent * 40));\n        require(payable(a2).send(percent * 30));\n        require(payable(a3).send(percent * 30));\n    }\n}",
  "sourcePath": "/home/turupawn/Projects/FunkyCrocs/contracts/FunkyCrocs.sol",
  "compiler": {
    "name": "solc",
    "version": "0.8.9+commit.e5eed63a.Emscripten.clang"
  },
  "schemaVersion": "3.4.3",
  "updatedAt": "2021-11-03T05:58:11.885Z",
  "networkType": "ethereum",
  "devdoc": {
    "kind": "dev",
    "methods": {
      "approve(address,uint256)": {
        "details": "See {IERC721-approve}."
      },
      "balanceOf(address)": {
        "details": "See {IERC721-balanceOf}."
      },
      "getApproved(uint256)": {
        "details": "See {IERC721-getApproved}."
      },
      "isApprovedForAll(address,address)": {
        "details": "See {IERC721-isApprovedForAll}."
      },
      "name()": {
        "details": "See {IERC721Metadata-name}."
      },
      "owner()": {
        "details": "Returns the address of the current owner."
      },
      "ownerOf(uint256)": {
        "details": "See {IERC721-ownerOf}."
      },
      "renounceOwnership()": {
        "details": "Leaves the contract without owner. It will not be possible to call `onlyOwner` functions anymore. Can only be called by the current owner. NOTE: Renouncing ownership will leave the contract without an owner, thereby removing any functionality that is only available to the owner."
      },
      "safeTransferFrom(address,address,uint256)": {
        "details": "See {IERC721-safeTransferFrom}."
      },
      "safeTransferFrom(address,address,uint256,bytes)": {
        "details": "See {IERC721-safeTransferFrom}."
      },
      "setApprovalForAll(address,bool)": {
        "details": "See {IERC721-setApprovalForAll}."
      },
      "supportsInterface(bytes4)": {
        "details": "See {IERC165-supportsInterface}."
      },
      "symbol()": {
        "details": "See {IERC721Metadata-symbol}."
      },
      "tokenByIndex(uint256)": {
        "details": "See {IERC721Enumerable-tokenByIndex}."
      },
      "tokenOfOwnerByIndex(address,uint256)": {
        "details": "See {IERC721Enumerable-tokenOfOwnerByIndex}."
      },
      "tokenURI(uint256)": {
        "details": "See {IERC721Metadata-tokenURI}."
      },
      "totalSupply()": {
        "details": "See {IERC721Enumerable-totalSupply}."
      },
      "transferFrom(address,address,uint256)": {
        "details": "See {IERC721-transferFrom}."
      },
      "transferOwnership(address)": {
        "details": "Transfers ownership of the contract to a new account (`newOwner`). Can only be called by the current owner."
      }
    },
    "version": 1
  },
  "userdoc": {
    "kind": "user",
    "methods": {},
    "version": 1
  }
}